:020000040800F2
:1000000000000220CD0200081D0300085938000836
:100010005F380008653800086B38000800000000F1
:10002000000000000000000000000000A14C0008DB
:100030001D030008000000003B4D00084B4D000868
:100040001D0300081D0300081D0300081D03000810
:100050001D0300081D0300081D0300081D03000800
:100060001D0300081D0300081D03000855160008A5
:10007000611600086D16000879160008851600083C
:10008000911600089D1600081D030008FD090008D0
:10009000F10900081D030008010A00081D030008FB
:1000A0001D0300081D0300081D0300081D030008B0
:1000B0001D0300081D0300081D0300081D030008A0
:1000C0001D0300081D0300081D030008611400083B
:1000D0006D1400081D0300081D0300081D0300081F
:1000E0001D0300081D0300081D0300081D03000870
:1000F0001D0300081D0300081D030008A9160008C1
:100100001D0300081D0300081D03000879140008E2
:100110001D0300081D0300081D0300081D0300083F
:10012000B5160008C1160008CD160008D91600083B
:10013000E51600080000000000000000110A000899
:10014000050A00081D030008150A00081D03000821
:10015000F1160008FD160008091700081D03000825
:100160001D0300081D0300081D0300081D030008EF
:100170001D0300081D0300081D0300080000000007
:10018000000000001D030008000000000000000047
:100190008514000800000000000000001D03000896
:1001A0000000000000000000000000001D03000827
:1001B0001D0300081D0300081D0300081D0300089F
:1001C0001D0300080348044B834202D0034B03B1D4
:1001D00018477047F8080020F808002000000000C9
:1001E0000548064B1B1AD90F01EBA301491002D099
:1001F000034B03B118477047F8080020F8080020A7
:100200000000000010B5064C237843B9FFF7DAFF71
:10021000044B13B10448AFF300800123237010BDD9
:100220000009002000000000049E000808B5054BEE
:100230001BB105490548AFF30080BDE80840FFF752
:10024000CFBF00BF0000000004090020049E00088A
:10025000A3F5803A704700BF174B002B08BF134B24
:100260009D46FFF7F5FF00218B460F461348144AC1
:10027000121A07F0D7FA0E4B002B00D098470D4BFF
:10028000002B00D098470020002104000D000D48ED
:10029000002802D00C4804F05BFA07F097FB20001E
:1002A000290006F03BF904F04FFC00BF00000800F5
:1002B0000000000071640008000002200009002016
:1002C000482A00205147000800000000DFF834D021
:1002D0000D480E490E4A002302E0D458C45004339E
:1002E000C4188C42F9D30B4A0B4C002301E0136075
:1002F0000432A242FBD302F0E1FAFFF7ADFF7047F0
:100300007047000000000220C8010020F80800200B
:10031000C09E000800090020482A0020FEE70000D7
:1003200010B594B0294B002100911A6C42F0805214
:100330001A641B6C03F080530093009B244B0191C3
:100340001A6842F440421A601B6803F44043019368
:10035000044607A8019B02F063F80D9B022B15D100
:1003600001F02AFD70BB0F220223CDE902234FF4D6
:10037000A0514FF48053CDE905130490052102A844
:1003800001F054FDB0FA80F040091CE00123002C7C
:10039000079314BF4FF4A0234FF480334FF480022F
:1003A000089302230820CDE90D324FF4B472CDE951
:1003B0000F02072207A8CDE91223119301F062FE74
:1003C0000028CDD0002014B010BD00BF003802407E
:1003D0000070004010B594B00023234A0093116CC4
:1003E00041F080511164126C02F080520092009A28
:1003F0001E4A0193116841F440411160126808934C
:1004000002F4404202240192CDE90D43019A4FF4D7
:10041000B47303220720CDE910340792062301228A
:10042000CDE912030A9207A810220B920F9201F055
:1004300029FE10B1002014B010BD01F0BDFC002851
:10044000F8D10F23CDE9023404904FF4A0524FF4B9
:100450008053052102A8CDE9052301F0E7FCB0FA9D
:1004600080F04009E7E700BF00380240007000401C
:1004700008B50120FFF754FF28B9FFF7ABFF10B90B
:10048000014804F0B7F808BDA08B00082DE9FF4132
:10049000A1F1F0081FFA88F8B8F10F0F04460D46D5
:1004A0001DD93C49284603F055F83A4907462846E5
:1004B00003F066F8B8F10F0F0646276007D901462A
:1004C000284600F009FC0021284600F095FC22682F
:1004D000511C0BD130493148342203F061FE3049C0
:1004E000284603F037F82E490746E0E7731C03D18E
:1004F00029492C483522F0E70121E1612A49A4F875
:1005000048500023C6F384368A42C4E90133C4E963
:100510000A3384F84A6023642361237684F8203008
:100520006362E36084F83030636111D101931F4B43
:100530005A6C42F480725A645B6C03F480730193CA
:10054000019B204601F004F900B3194804F052F869
:1005500018498A420BD10293144B5A6C42F4007230
:100560005A645B6C03F400730293029BE9E712493F
:100570008A42E6D103930D4B5A6C42F480625A646E
:100580005B6C03F480630393039BDAE704B0BDE87C
:10059000F08100BFFC8900080B8C00081D8C00084E
:1005A000CC890008478C0008002001400038024038
:1005B000608C0008002101400022014030B5044653
:1005C00085B010220021684607F02CF994F84A20E3
:1005D0000123CDE90133122A4DD8DFE802F00C0BDC
:1005E0000A27292B2D2F31333537393B3D3F4146E3
:1005F000480002230093214D6B6823F440036946B1
:100600006B60204601F01EFA204601F047F90A21EE
:10061000204601F0C1F960BB204601F010FA80B21B
:100620006B6823F440036B6005B030BD0323E1E742
:100630000423DFE70523DDE70623DBE70723D9E70C
:100640000823D7E70923D5E70A23D3E70B23D1E70C
:100650000C23CFE70D23CDE70E23CBE70F23C9E70C
:10066000074B009307230293C5E71123F9E71223F1
:10067000F7E70020D4E70020D6E700BF00230140C1
:100680001200001073B500F009FD041E2CDB174E9C
:1006900056F82400002827D04423154D6343EB5817
:1006A0001A68120606D5DB68190603D5114B01211D
:1006B0001B68984744236343EB581A68920608D591
:1006C000DB68980605D50B4B56F824001B68002103
:1006D000984744235C432B591A68110704D55A697B
:1006E000D20744BF5B68019302B070BDB80A002016
:1006F000200900201C0900200148FFF7C3BF00BFEC
:10070000001401400148FFF7BDBF00BF005000408A
:100710000148FFF7B7BF00BF004C00400148FFF79A
:10072000B1BF00BF004800400148FFF7ABBF00BFAA
:10073000004400400148FFF7A5BF00BF0010014082
:10074000002807DB044A4109012300F01F00834011
:1007500042F82130704700BF00E100E000280CDBC8
:100760004309064900F01F0020330122824041F86E
:100770002320BFF34F8FBFF36F8F704700E100E07E
:10078000034B19604168034B43F82120704700BFB9
:100790001C090020B80A002030B4D0E900352B48ED
:1007A000834237D020D8A0F5006083422CD000F5DA
:1007B000806083422BD0A0F50060834221D00024CA
:1007C000204644236B43224DEB584AB3DA6821BBE1
:1007D00042F02002DA601F4B00F110029B6843F8E0
:1007E000224030BCFFF7ACBF1B48834206D000F567
:1007F00080608342E3D1194C4720E2E7184C252062
:10080000DFE7184C2620DCE7174C2720D9E7174CE8
:100810003420D6E7164C3520D3E742F08002D9E7E2
:10082000DA6849B922F02002DA60DB6813F0800F41
:1008300009D130BCFFF792BF22F08002DA60DB689A
:1008400013F0200FF4E730BC704700BF00500040A9
:100850002009002000ED00E000100140F90600082A
:1008600035070008290700081D07000811070008C0
:100870000507000838B545680446204600F0ACFB83
:100880000028FAD044235D436269074B5B591AB9CB
:100890005868C0F3080038BDE268586812B900F023
:1008A0007F00F8E7C0B2F6E72009002070B546687F
:1008B00005460C46284600F0A7FB0028FAD0442342
:1008C0005E43034B9B59C4F308045C6070BD00BFDA
:1008D0002009002008B5FFF771FE07EE900A9FED92
:1008E000047AF8EE677A67EE877A17EE900A08BD09
:1008F0000108803943692DE9F041DF0704460D46C0
:100900002BD536498768364E82688368354807EAB2
:10091000010CB94308BF012102EA060208BFA16029
:10092000B24208BF4FF4807103EA000308BFA16020
:10093000834204BF4FF48031A16028498C4505D023
:1009400027498A4202D0274A934206D1264B274A9A
:100950001B6852F8250001219847E26863699607F1
:100960000CD098070AD56369204A23F0020363611B
:100970001D4B52F825001B6800219847A169626948
:10098000636989070AD5970508D51E0406D5164B55
:10099000164A1B6852F8250005219847A16962692B
:1009A0006369480702D46369BDE8F0815105FAD54F
:1009B0001A040BD463691B04F6D50B4B0B4A1B6856
:1009C00052F825000221BDE8F0411847074A064BBE
:1009D00052F825001B6807219847EBE70300000445
:1009E0000003000800000310D00A0020D40A0020F1
:1009F00001480021FFF77EBF00640040FFF7F8BF09
:100A0000FFF7F6BF01480121FFF774BF00680040FF
:100A1000FFF7F8BFFFF7F6BF30B591FAA1F391FAEF
:100A2000A1F1B3FA83F304685B000325B1FA81F105
:100A300005FA03F3490024EA03038A401A430260DB
:100A400030BD000000B5384B89B00022072867D8B8
:100A5000DFE800F004121E2A36424E5A00921A6B4A
:100A6000324842F001021A631B6B03F0010300934A
:100A7000009B09B05DF804FB01921A6B2C4842F010
:100A800002021A631B6B03F002030193019BF0E760
:100A900002921A6B274842F004021A631B6B03F0A0
:100AA00004030293029BE4E703921A6B224842F08C
:100AB00008021A631B6B03F008030393039BD8E738
:100AC00004921A6B1D4842F010021A631B6B03F06C
:100AD00010030493049BCCE705921A6B184842F06C
:100AE00020021A631B6B03F020030593059BC0E7EC
:100AF00006921A6B134842F040021A631B6B03F014
:100B000040030693069BB4E707921A6B0E4842F027
:100B100080021A631B6B03F080030793079BA8E70F
:100B20000A4803F067FD00BF0038024000000240A1
:100B30000004024000080240000C02400010024085
:100B40000014024000180240001C0240768C00088D
:100B5000431C10B5044604D106490748772203F028
:100B60001FFB4FF4707100F0B7F804F00F04012080
:100B7000A04010BDDF8C0008EA8C00084B1C70B54B
:100B800004460E46018216D0C1F30310FFF75AFF48
:100B900005463046FFF7DCFF238A074A656103F00C
:100BA0000F03206052F82330A36105F110031835BC
:100BB000C4E90255636070BD149B0008B0F91000D1
:100BC00000F01AB90A46D0E905010AB9FFF724BFB7
:100BD0000122FBE708B500F073FC002008BD00000F
:100BE00038B503F0A1FB124B124913485C6A026846
:100BF0000B889B1A2344B3F5803F17D34FF47A75C3
:100C0000B3FBF5F205FB123305E00132A3F57A736D
:100C1000B3F57A7FF9D20460084C9BB20B8023684D
:100C20001344236003F096FB206838BD0022EFE7F1
:100C3000000C0040DC0A0020E40A0020E00A00204A
:100C40007047704710B5FFF7FCFF01F045FE00F05C
:100C500063FD0A4B1C6F14F0020404D101F070F81C
:100C6000204601F0BBF9FFF703FC01F035FEFFF76A
:100C7000E7FF034B01221A6010BD00BF003802409D
:100C8000E80A002030B591FAA1F391FAA1F1B3FA84
:100C900083F384685B000325B1FA81F105FA03F35D
:100CA000490024EA03038A401A43826030BD30B50C
:100CB00091FAA1F391FAA1F1B3FA83F3C4685B004E
:100CC0000325B1FA81F105FA03F3490024EA03038D
:100CD0008A401A43C26030BDB0F1FF3F2DE9F843AE
:100CE00080460E467FD000F00F02404BC0F3031049
:100CF00053F82250C1F3831901F00707FFF7A2FE52
:100D0000B9F10F0F0CBF03224A4629460446FFF7EC
:100D1000B9FF032F5ED8DFE807F062642C020323DB
:100D200095FAA5F2B2FA82F221685200032000FA85
:100D300002F221EA020195FAA5F2B2FA82F2520019
:100D40009340013F0B43012F236005D863683207AE
:100D50004CBF2B43AB436360C6F30112012A02D0A0
:100D6000022A18BF002229462046BDE8F843FFF7B3
:100D70009EBF18F0080FC6F3832217D02B0A93FAF0
:100D8000A3F1B1FA81F1406A93FAA3F389004FF01D
:100D90000F0CB3FA83F30CFA01F19B0020EA010176
:100DA00002FA03F30B4363620223B9E795FAA5F352
:100DB000B3FA83F3016A9B000F2000FA03F321EAE0
:100DC000030195FAA5F3B3FA83F39B009A400A4313
:100DD0002262E9E706490748D52203F0E1F900233A
:100DE0009EE701239CE7BDE8F88300BF149B000841
:100DF000458D00086496000838B5431C0D4634D074
:100E000000F00F02194BC0F3031053F82240FFF714
:100E100019FE94FAA4F2B2FA82F252000168032396
:100E200093400B4094FAA4F26AB1B2FA82F25200F3
:100E3000D340013B012B06D8EB1E022B436894BF25
:100E40002343A3434360013D042D0CD8DFE805F0A4
:100E50000309030B090001222146BDE83840FFF7D2
:100E600026BF0222F8E70022F6E738BD149B0008EF
:100E70000FB407B5064B07491B6805AAD86801924D
:100E800003F049F903B05DF804EB04B0704700BF0C
:100E9000A40700204E8D00080368474A934210B50E
:100EA00004461ED102F59432516A41F0100151629C
:100EB000516A21F010015162516C21F0100151640E
:100EC0003E4A93421DD13E4B5A6A42F020025A627A
:100ED0005A6A22F020025A625A6C22F020025A64A6
:100EE0000FE0384A934236D1354B1A6A42F4003249
:100EF0001A621A6A22F400321A621A6C22F4003260
:100F00001A64B4F9180040F2C331FFF7E5FEB4F9F2
:100F10001A0040F2C331FFF7DFFE236A23F40073A7
:100F2000B3F5807F05D1B4F9240040F2C331FFF757
:100F3000D3FE236A23F48073B3F5007F05D1B4F99F
:100F4000260040F2C331FFF7C7FE62681E4B002146
:100F500043F8221010BD1D4A93420CD1184B1A6A57
:100F600042F480221A621A6A22F480221A621A6CEF
:100F700022F48022C4E7164A93420CD1104B1A6A1D
:100F800042F400221A621A6A22F400221A621A6CCF
:100F900022F40022B4E70F4A934291D1084B1A6A17
:100FA00042F480121A621A6A22F480121A621A6CCF
:100FB00022F48012A4E700BF001001400014014099
:100FC0000038024000440040B80A002000480040B9
:100FD000004C004000500040436844225343094AFB
:100FE000D3581A68120782B006D5002201921A68F7
:100FF00001925A680192019A1868C0F3401002B039
:10100000704700BF20090020436844225343034A2D
:10101000D3581868C0F3C010704700BF20090020E3
:1010200030B44468144A0346442161431D68555056
:10103000881899684160D96881601969C1605969E7
:101040000161196A81610021C184C1618184C18506
:101050008185B3F91A1001310CD0B3F91830591C3D
:101060000CBF04230C23442101FB042230BC536138
:1010700001F0F5BB0823F6E72009002010B58160D8
:101080000C46FFF7CDFF28B121460348BDE81040CC
:10109000FFF7EEBE10BD00BF4E8D0008124B984208
:1010A00017D0A3F54C43984215D003F580639842BE
:1010B00013D003F58063984211D003F58063984202
:1010C0000FD003F5444398420CBF05204FF0FF308A
:1010D00070470020704701207047022070470320AE
:1010E00070470420704700BF001001402DE9F04711
:1010F0000F4686B0634904463846164602F02AFA7F
:1011000061498246304602F025FA0146504602F017
:10111000FDF95C490546384602F032FA5A498146E3
:10112000304602F02DFA022F80460AD0032E08D056
:101130005449022002F00EFA50450CD1534803F0F6
:1011400059FA4FF0010A691C256007D150495148EE
:10115000412203F025F84FF0000AF4E74E4B9D4280
:101160004FF000031AD100934C4B5A6C42F010021E
:101170005A645B6C03F010030093009B484B9D4244
:101180001AD100230593454B5A6C42F020025A6451
:101190005B6C03F020030593059B0DE0414A9542EB
:1011A00014D101933D4B1A6C42F400321A641B6C4B
:1011B00003F400330193019B2846FFF76FFF0028DB
:1011C000606030DA32493848A022C2E7374A954297
:1011D0000BD10293314B1A6C42F480221A641B6CBF
:1011E00003F480230293029BE6E7314A95420BD138
:1011F00003932A4B1A6C42F400221A641B6C03F40A
:1012000000230393039BD7E72A4A9542B6D1049360
:10121000224B1A6C42F480121A641B6C03F4801384
:101220000493049BC8E749463846FFF755FD012162
:101230003846FFF7E1FD41463046FFF74DFD3046A9
:101240000121FFF7D9FD00234FF4E132C4E9022365
:10125000C4E904332362278366832046FFF7E0FE58
:10126000BAF1000F0AD0144B144801221A6021462B
:101270004C2206B0BDE8F04706F0E6BB06B0BDE87C
:10128000F08700BF54890008DC880008788D0008CA
:10129000F58D0008028E0008001001400038024061
:1012A00000140140004400401E8E00080048004029
:1012B000004C004000500040380B0020EC0A002099
:1012C0001C4BD86810F4005018BF18681A4BDA6825
:1012D0001CBF80F04000C0F38010920404D51B684E
:1012E00013F0400F08BF0120144BDA68910404D5B5
:1012F0001B6813F0400F08BF0120114BDA689204FD
:1013000004D51B6813F0400F08BF01200D4BDA68AD
:10131000910404D51B6813F0400F08BF01200A4B4D
:10132000DA68920404D51B6813F0400F08BF01204F
:10133000704700BF001001400044004000480040DA
:10134000004C00400050004000140140034A516A24
:10135000536A5B1A8342FBD3704700BF000C004006
:1013600010B5002486B01422214601A8009406F08E
:1013700059FA694601A800F013FE0F230099019362
:1013800001A8CDE902440594049400F04FFD10B18A
:10139000024803F02FF906B010BD00BF308E0008E0
:1013A00010B58EB00021342201A806F03BFA0024CB
:1013B0000E4B00941A6C42F080521A641B6C03F0BE
:1013C0008053009301A8009B01F02AF802230193A7
:1013D0000121102301A8CDE90413079400F052FE67
:1013E00010B1034803F006F90EB010BD00380240FA
:1013F000588E000808B502F097FF064B18680121C7
:1014000010F0010018BF084600F0A8FCBDE8084035
:1014100002F0A0BF0070004038B5FFF751FF04464E
:10142000D8B902F081FF0D4D00F0E4F80121084623
:1014300000F0A6FC2C60FFF7B3FFFFF791FFFFF76A
:1014400017F84FF4FA70FFF781FF00F0EBF8012373
:101450002B60BDE8384002F07DBF38BDE80A0020AF
:10146000014B186801F024B8480B0020014B1868A4
:1014700001F01EB8440B0020014B186801F018B8A9
:10148000400B0020014B186801F012B83C0B002003
:10149000074B084A13601A69910707D5DA68920763
:1014A00004D56FF002021A6102F07AB9704700BFEA
:1014B000000C0040580B002000487047549B000867
:1014C00030B589B001A903A800F06AFD00F048FD1D
:1014D00000230293204B01901A6C204C42F008022A
:1014E0001A641A6C02F008020292029A1A6A42F016
:1014F00008021A621A6A22F008021A62069AA3F512
:101500000B3323604FF0FF33E360154BFAB9B0FBA8
:10151000F3F3581E0025606010482561C4E90555A5
:10152000A56001F0A5F80F4B0F4A9B68C3F808218E
:101530000E4B4FF480225A600848294601F0D2F839
:101540002268D36823F00203D36009B030BD4000A5
:10155000B0FBF3F00138DDE700380240580B002003
:1015600040420F0000ED00E09114000800E100E0AF
:1015700004480268D36823F00203D360002101F01D
:10158000B1B800BF580B0020014B586A704700BF2C
:10159000000C0040054B1B686FF0020258631A6193
:1015A000DA6842F00202DA60704700BF580B002090
:1015B000064B1B686FF002021A615A6942F0020280
:1015C0005A61DA6842F00202DA607047580B002074
:1015D000034B1A68D36823F00203D360704700BF3F
:1015E000580B0020024B1B686FF002021A61704713
:1015F000580B0020064B074A1B68596A11605A6B4A
:10160000054B1A60054BDA68054B1A60704700BF3E
:10161000580B0020540B0020500B0020000C004001
:101620004C0B0020064B074A1B6812685A62064A98
:1016300012685A63054B1A68054BDA60704700BFA1
:10164000580B0020540B0020500B00204C0B0020A6
:10165000000C0040014B186800F0B4BAA00B002049
:10166000014B586800F0AEBAA00B0020014B9868FF
:1016700000F0A8BAA00B0020014BD86800F0A2BA75
:10168000A00B0020014B186900F09CBAA00B0020B1
:10169000014B586900F096BAA00B0020014B9869E5
:1016A00000F090BAA00B0020014BD86900F08ABA74
:1016B000A00B0020014B186A00F084BAA00B002098
:1016C000014B586A00F07EBAA00B0020014B986ACB
:1016D00000F078BAA00B0020014BD86A00F072BA73
:1016E000A00B0020014B186B00F06CBAA00B00207F
:1016F000014B586B00F066BAA00B0020014B986BB1
:1017000000F060BAA00B0020014BD86B00F05ABA71
:10171000A00B00207047000008B50B4B1A6842F47C
:1017200000721A601A6842F480621A601A6842F401
:1017300080721A60032000F021FA0F20FFF74AFAA6
:10174000FFF7E8FF002008BD003C024070470000A2
:1017500038B50446002800F09B80056C25B9FFF7DA
:10176000F5FF656484F83C50236CDB0600F18E8045
:10177000236C23F4885323F0020343F00203236411
:10178000444B5A6822F440325A605A6861680A43EE
:101790005A60236821695A6822F480725A605A6834
:1017A00042EA01225A605A68A16822F040725A60E7
:1017B0005A680A435A609A68E16822F400629A60A3
:1017C0009A680A439A603449A26A8A4252D0996858
:1017D00021F07061996099680A439A609A68E16A99
:1017E00022F040529A609A680A439A609A6822F0FE
:1017F00002029A609A68217E42EA41029A6094F855
:101800002020002A3ED05A68616A42F400625A6081
:101810005A6822F460425A605A68013942EA4132F9
:101820005A60DA6AE16922F47002DA62DA6A01392E
:1018300042EA0152DA629A6822F400729A609A6867
:1018400094F8301042EA41229A609A68616922F461
:1018500080629A609A68002042EA81229A606064FD
:10186000236C23F0030343F001032364002384F873
:101870003C3038BD9A6822F070629A609A6822F013
:101880004052B2E75A6822F40062C9E70120EDE74E
:101890000120EEE7002301400100000F82B0002389
:1018A000019390F83C30012B69D0012380F83C3043
:1018B00003689A68D2070BD59A68D1071AD4036CCB
:1018C00043F010030364436C43F0010343644CE0B2
:1018D0009A682C4942F001029A602B4A1268B2FBC6
:1018E000F1F202EB42020192019A002AE4D0019A3D
:1018F000013AF8E7026C22F4E06222F0010242F4BD
:10190000807202645A68520541BF026C22F4405250
:1019100042F480520264026C12F480521CBF426C8A
:1019200022F006024264002280F83C206FF022027E
:101930001A60164A516811F01F0F15491CD18B42CD
:1019400007D001F580718B420CD1526812F01F0F45
:101950000BD19A6812F0405F07D19A6842F080423A
:101960009A6002E00B498B4202D0002002B070471F
:10197000526812F0100FEBE78B42F6D1E9E7022034
:10198000F4E700BF40420F00D001002000230140D7
:10199000002001400022014003689A68520570B59A
:1019A00004460D460BD59B68DE0508D5036C43F055
:1019B00020030364002380F83C30012070BDFFF752
:1019C0000FF9064623681A6891070CD56FF01202CA
:1019D0001A60226C42F4007222649A6812F0405F2E
:1019E00017D00020EAE7681CEDD065B923681B68B2
:1019F00013F00203E6D1226C84F83C3042F004027A
:101A000022640320DAE7FFF7EBF8801BA842EDD849
:101A1000D8E7227E002AE4D1DA6A12F4700F02D0ED
:101A20009B685A05DDD4236C23F480732364236CF4
:101A3000DB04D6D4236C43F001032364D1E70368AD
:101A4000D86C7047F7B50023019390F83C30012B18
:101A5000054600F08680012380F83C3008682B683A
:101A60008E68092884B233D904EB4402DF681E3A39
:101A70004FF0070C0CFA02FC27EA0C07DF60DF6866
:101A800006FA02F23A43DA604968062901EB81025C
:101A90002DD8596B053A1F26964021EA0601596355
:101AA000596B04FA02F20A435A632F4A93420AD14D
:101AB000122837D12D4B5A6822F400025A605A6816
:101AC00042F480025A60002085F83C0003B0F0BD6B
:101AD0001A6900EB400C072707FA0CF722EA070205
:101AE0001A611A6906FA0CF616431E61CCE70C2936
:101AF0004FF01F010BD81E6B233A914026EA0101DB
:101B00001963196B04FA02F20A431A63CDE7DE6A1D
:101B1000413A914026EA0101D962D96A94400C43C6
:101B2000DC62C2E7124B984201D01128CBD10F4B97
:101B30005A6822F480025A605A6842F400025A60DD
:101B40000B4B9842BFD10B4B0B4A1B68B3FBF2F314
:101B50000A2253430193019B002BB4D0019B013B0C
:101B6000F8E70220B2E700BF002001400023014057
:101B700012000010D001002040420F000749CA683F
:101B800022F4E0620302120403F4E063120C134334
:101B900043F0BF6343F40033CB60704700ED00E0D7
:101BA00090F83530022B03D0802343650120704725
:101BB0000268052380F83530136823F001031360B1
:101BC00000207047F7B5002301935C4B856D1F68BB
:101BD000C36D2E6808229A40324204460CD0016838
:101BE0000868400708D5086820F004000860AA606B
:101BF000626D42F00102626501229A40324208D0D1
:101C000021684969090641BFAA60626D42F002027B
:101C1000626504229A40324208D021680968880728
:101C200041BFAA60626D42F00402626510229A40D0
:101C3000324210D02368196809070CD5AA601A68C7
:101C4000500337D51B68190301D4236C00E0A36C43
:101C50000BB120469847E16D20228A4032423AD0AB
:101C600023681868C60636D5AA6094F83520052A78
:101C70001A6827D122F016021A605A6922F08002EF
:101C80005A61226C0AB9A26C1AB11A6822F00802D1
:101C90001A603F238B40AB60002384F8343001236B
:101CA00084F83530236D002B45D0204603B0BDE8C5
:101CB000F04018471A68D2055EBF1A6822F0080281
:101CC0001A60C2E7500327D51B68190331D4636C2F
:101CD0000BB120469847636D6BB3636DDA0719D576
:101CE00022684FF41653B7FBF3F7052384F8353019
:101CF000136823F001031360019B0133BB4201937E
:101D000002D81368DB07F7D4002384F834300123AA
:101D100084F83530E36CC6E71A6812F4807208D193
:101D2000196821F010011960012384F8342084F827
:101D30003530E36BCCE703B0F0BD00BFD00100202D
:101D4000044B012282B01A62034B1B680193019B72
:101D500002B0704700000E4200700040074A13694D
:101D6000012923F00403136104D130BF00BF00BF79
:101D700000BF704740BF20BF20BF704700ED00E0AC
:101D80000B4A136823F0030303431360094B1A69DA
:101D9000012942F004021A6105D130BF1A6922F00C
:101DA00004021A61704740BF20BF20BFF6E700BFA2
:101DB0000070004000ED00E037B500230193184BA0
:101DC000184D1A6C42F080521A641B6C03F0805359
:101DD0000193019B144B01221A64FEF701FF044694
:101DE0006B68DA030BD5104B0E4D01225A64FEF7D7
:101DF000F7FE04466B689B030AD5002006E0FEF759
:101E0000EFFE001BB0F57A7FEAD9032003B030BDA6
:101E1000FEF7E6FE001BB0F57A7FEBD9F5E700BFD1
:101E2000003802400070004000000E422DE9F041F1
:101E30000D46044610B90120BDE8F081434B1A68F5
:101E400002F00F028A4228D321688F072DD4C807D9
:101E500040D43E4B1A6802F00F02AA4265D82268AD
:101E600051076BD4130707D5394A2169936823F4C6
:101E7000604343EAC103936000F0BCF8344B354A39
:101E80009B68C3F30313D35CD840334B1860334BC8
:101E90001868FEF79FFE0020CEE7CAB21A701B68D2
:101EA00003F00F038B42C6D1CEE7294B11F0040F8C
:101EB0001EBF9A6842F4E0529A600E0742BF9A68C9
:101EC00042F460429A609A68A06822F0F0020243ED
:101ED0009A60BCE762681E4B012A1CD11B6813F490
:101EE000003FA8D01A4EB36823F003031343B36036
:101EF000FEF776FE41F288380746B368626803F061
:101F00000C03B3EB820FA4D0FEF76AFEC01B404562
:101F1000F3D9032090E7911E01291B6802D813F022
:101F2000007FDEE713F0020FDBE7EAB21A701B68EE
:101F300003F00F03AB427FF47EAF90E70449E06803
:101F40008B6823F4E05303438B608BE7003C024033
:101F500000380240649B0008D0010020CC01002022
:101F6000044B054A9B68C3F38223D35C034A106881
:101F7000D8407047003802405C9B0008D001002028
:101F8000044B054A9B68C3F34233D35C034A106891
:101F9000D8407047003802405C9B0008D001002008
:101FA0000F2303600B4B9A6802F0030242609A68A9
:101FB00002F0F00282609A6802F4E052C2609B680C
:101FC000DB0803F4E0530361034B1B6803F00F03CA
:101FD0000B60704700380240003C0240044B1A6F0F
:101FE00001280CBF42F0080222F008021A6770476D
:101FF00000380240204908B58B6803F00C03082B19
:1020000007D00C2B20D01D481D4A042B18BF1046AA
:1020100008BD4A684B68496813F4800314BF174829
:102020001748C1F3881118BF002302F03F02A1FB3B
:10203000000106F099FA104B5B68C3F301430133CA
:102040005B00B0FBF3F0E3E74A684B68496813F4C0
:10205000800314BF09480A48C1F3881118BF002340
:1020600002F03F02A1FB000106F07EFA024B5B6822
:10207000C3F30273E5E700BF0038024000127A00A4
:102080000024F4002DE9F3410446002831D0036810
:10209000DF0710D423689E0767D42368190700F16F
:1020A000B28023685A0700F1D280A369002B40F068
:1020B0003981002034E0984B9A6802F00C02042A1F
:1020C00010D09A6802F00C02082A02D15B685D0207
:1020D00008D4914B9A6802F00C020C2A0BD15A6872
:1020E000510208D58C4B1B689A03D3D56368002B2B
:1020F000D0D1012014E06268B2F5803F13D11A6894
:1021000042F480321A60FEF76BFD834E0546336859
:102110009B03BFD4FEF764FD401B6428F7D903205E
:1021200002B0BDE8F0817C4DB2F5A02F2B6807D13D
:1021300043F480232B602B6843F480332B60E2E769
:1021400023F480332B602B6823F480232B60002A38
:10215000D9D1FEF745FD06462B689F039AD5FEF7B9
:102160003FFD801B6428F7D9D9E76B4B9A6812F0C2
:102170000C0F10D09A6802F00C02082A02D15B689A
:102180005E0208D5644A936803F00C030C2B11D14E
:1021900053685D020ED4604A1368990702D5E3685C
:1021A000012BA6D11368216923F0F80343EAC10388
:1021B000136072E7E268594BB2B101221A60FEF770
:1021C0000FFD554D06462B689B0707D52B682269E6
:1021D00023F0F80343EAC2032B605EE7FEF700FD3D
:1021E000801B0228EFD99AE71A60FEF7F9FC4A4EE5
:1021F000054633689F077FF550AFFEF7F1FC401BA3
:102200000228F6D98BE76269444B82B10122C3F8F8
:10221000802EFEF7E5FC404E0546736F9B073FF5A9
:1022200040AFFEF7DDFC401B0228F6D977E7C3F884
:10223000802EFEF7D5FC384E0546736F9F077FF55D
:1022400030AFFEF7CDFC401B0228F6D967E7324BD2
:102250001A6C12F0805228D101921A6C42F080520E
:102260001A641B6C03F080530193019B01272C4DD2
:102270002B68D8051BD5A368274D012B27D12B6FC1
:1022800043F001032B67FEF7ABFC234E054641F2FA
:102290008838336F9A0739D5002F3FF406AF1E4AAE
:1022A000136C23F080531364FFE60027DFE72B68ED
:1022B00043F480732B60FEF793FC06462B68D90528
:1022C000D9D4FEF78DFC801B0228F7D927E7052B10
:1022D00004D12B6F43F004032B67D0E72A6F22F061
:1022E00001022A672A6F22F004022A67002BCAD152
:1022F000FEF776FC41F2883806462B6F9B07CBD55C
:10230000FEF76EFC801B4045F7D908E7FEF768FC36
:10231000401B4045BDD902E700380240000047425B
:10232000007000403C4DAA6802F00C02082A41D01F
:10233000022B3A4B4FF000021A662ED1FEF750FCEA
:1023400006462B68990122D4D4E907321343626A06
:1023500043EA8213E26A43EA0263226B43EA0273AE
:10236000A26A5208013A43EA02436B602B4B2A4DA2
:1023700001221A66FEF734FC04462B689A013FF5E9
:1023800098AEFEF72DFC001B0228F6D9C7E6FEF733
:1023900027FC801B0228D4D9C1E6FEF721FC0446A5
:1023A0002B689B017FF585AEFEF71AFC001B022807
:1023B000F6D9B4E6012B3FF49CAE6B68E26903F4F6
:1023C000800191427FF495AE216A03F03F028A4278
:1023D0007FF48FAE616A47F6C0721A40B2EB811F7C
:1023E0007FF487AEA26A520803F44031013AB1EBA0
:1023F000024F7FF47EAEE16A03F07062B2EB016FD0
:102400007FF477AE226B03F0E043B3EB027F14BF9F
:102410000120002084E600BF00380240000047424F
:102420000F230360204B1A68510356BF1A684FF4FC
:10243000A02202F4803242601A6802F00102C260F7
:102440001A68C2F3C40202611A6F520756BF1B6FAB
:10245000052303F001038360134B5A6F02F001025E
:1024600042611A6812F0807F0CBF01220222826151
:102470005A6802F48002C2615A6802F03F020262A6
:102480005A68C2F3881242625A6802F4403202F576
:102490008032D20B82625A68C2F30362C2625B6806
:1024A000C3F30273036370470038024070470000B3
:1024B000F0B503685D689A68560685B004464FEA31
:1024C0009211C2F3801708D4D60706D56E0604D53C
:1024D000036C05B0BDE8F0401847960704D5280600
:1024E00002D5636C2046F4E741EA521102F4807091
:1024F00001F0010101434FEA521657D0AA0655D503
:102500007FB194F85120032A4FF0000148D0626D4A
:1025100042F0040262650091DA6800929A680092C3
:10252000009AF1070CD5626D42F00102626500224B
:1025300002929A6802921A6822F040021A60029A85
:1025400040B1626D42F008026265002203929A680F
:102550000392039A626D4AB35A6822F0E0025A600D
:10256000012284F85120AA0722D05A68E06C22F098
:1025700003025A6040B1104B0365FFF711FB18B11D
:10258000636D43F040036365A06C78B10A4B03654B
:10259000FFF706FB50B1636D43F04003636505E050
:1025A0000191DA6801929B680193019B05B0F0BD2F
:1025B0002046FFF77BFFF9E7BD25000808B5806BD3
:1025C0000023C387C386FFF771FF08BD7047000073
:1025D000254A0368904212D0B0F1804F0FD0A2F587
:1025E0007C4290420BD002F58062904207D002F507
:1025F0008062904203D002F57842904208D14A6846
:1026000023F070031343CA6823F44073134316E0A6
:10261000164A9042F7D002F580629042F3D002F55C
:1026200080629042EFD0A2F598329042EBD002F552
:1026300080629042E7D002F580629042E3D04A691E
:1026400023F08003134303608B68C3620B688362CB
:10265000054B984203D003F58063984201D10B6982
:1026600003630123436170470000014000400140C3
:1026700010B5044630B390F83D3003F0FF021BB9AB
:1026800080F83C20FFF7A2FF0223206884F83D3049
:10269000211DFFF79DFF012384F84630002084F8B8
:1026A0003E3084F83F3084F8403084F8413084F87C
:1026B000423084F8433084F8443084F8453084F85C
:1026C0003D3010BD0120FCE7036A10B501F01F0189
:1026D00001248C4023EA04030362036A8A401A43FC
:1026E000026210BD08B529B990F83E30012B1FD009
:1026F000012035E0042907D190F83F30012BF7D1B4
:10270000022380F83F3016E008290CBF90F84030D3
:1027100090F84130013B18BF0123002BE8D1082974
:102720004FF002030CBF80F8403080F8413002E0E7
:10273000022380F83E3000680122FFF7C5FF164BE8
:10274000984203D003F5806398420AD1436C43F466
:1027500000434364836803F00703062B17D100206E
:1027600008BDB0F1804FF5D00C4B9842F2D003F584
:1027700080639842EED003F580639842EAD003F577
:102780009A339842E6D0A3F594339842E2D0036896
:1027900043F001030360E2E7000001400004004051
:1027A0000268C16838B5136923F440530B431361C1
:1027B000054683680069D168034368690343E86993
:1027C00021F4164121F00C0103430B43D3605369FC
:1027D000A96923F440730B4353611F4B9A4203D002
:1027E00003F580639A4224D1FFF7CAFBEA691921F5
:1027F000B2F5004FD5E90043A0FB01011CD1DA1866
:102800004FF0000545EB050305F0AEFE6422B0FB7A
:10281000F2F102FB1103DB003233B3FBF2F303F0FE
:1028200007025B0002EB011203F4F8731344A36088
:1028300038BDFFF795FBD9E79A009B0F05F094FE92
:102840006422B0FBF2F102FB11031B013233B3FB34
:10285000F2F303EB0113EAE700100140704710B5F3
:10286000044640B390F83D3003F0FF021BB980F8F6
:102870003C20FFF7F3FF2268242384F83D30D3681F
:1028800023F40053D3602046FFF78AFF23681A69B8
:1028900022F490421A615A6922F02A025A61DA68D7
:1028A00042F40052DA6000202023206484F83D3096
:1028B00084F83E3010BD0120FCE70000044B054ABF
:1028C0009A60D3F8882042F47002C3F888207047D9
:1028D00000ED00E000000008154B9A6802F00C02C1
:1028E000042A21D0082A21D159685A685B68490214
:1028F000C3F388134CBF0F490F4902F03F02B1FBED
:10290000F2F253430A4A5268C2F3014201325200C2
:10291000B3FBF2F3064A09499268C2F303128A5CD8
:10292000D340074A13607047024BF3E7024BF1E7CD
:102930000038024000127A000024F400649B000872
:10294000D001002038B50546044655F8043B9B6885
:1029500098472846FDF7BEFF23680546DB682046FA
:102960009847284638BD000070B50546064655F81C
:10297000044B54B901F0FEFB346824B9284602F038
:1029800039F92C46356001F0FFFBAC4204D0034915
:102990000348732201F004FC204670BDCC8E000871
:1029A000DB8E000808B50348FFF7DEFFBDE80840EE
:1029B00002F028B9E00B002008B50348FFF7D4FF68
:1029C000BDE8084002F03AB9E00B002038B5084BEA
:1029D0000360044602650D46FFF7E4FF2946201D0B
:1029E000FDF754FD2046FFF7E7FF204638BD00BF46
:1029F0007C9B000838B50546064B45F8043B044669
:102A0000FFF7D0FF284600F02AFD2046FFF7D4FF4D
:102A1000204638BD7C9B000810B50446FFF7EAFF4E
:102A20002046542102F0B3F8204610BD036801226D
:102A30001B6900211847036800221B6911461847CB
:102A40006FF01500704780F834130020704780F84D
:102A500050120020704790F83403704790F85002ED
:102A6000704700207047012070476FF01C007047CE
:102A70000A4B10B5036048330446C0F8E430D0F880
:102A8000380310B103685B68984704F5407002F0A2
:102A9000EFF8204600F008FC204610BD949B00088B
:102AA000A0F1E400FFF7E4BF10B50446FFF7E0FF34
:102AB00020464FF44F7102F06AF8204610BDA0F195
:102AC000E400FFF7F1BF10B48268016854100346B8
:102AD00001EB6200D20748BF0A595B685DF8044BFE
:102AE00048BFD3581847012070476FF01C0070474B
:102AF00000207047D0F8380308B520B100F0D7FAAD
:102B0000003818BF012008BD30B5002587B0CDE9D9
:102B1000005502AB0ECB044600F080FB84F8365320
:102B200007B030BD30B5012387B00025CDE9005393
:102B300002AB0ECB044600F071FB84F8355307B0AE
:102B400030BD10B5044601F0EFFBD4E940239A42B2
:102B50000ABF94F80841002484F0010401F0FAFB54
:102B6000204610BD38B500F540750446284602F0F1
:102B700049F804F5FA742046FFF7E3FF20B1284630
:102B800002F05CF8002038BD284602F057F801201A
:102B900001F0FFFF284602F035F8ECE7A0F1E40071
:102BA000FFF7E0BF38B50546E830FFF7CAFF80F011
:102BB00001042846E4B2FFF79DFF18B144F4005425
:102BC000204638BD95F8FC32002BF9D144F01004B2
:102BD000F6E7A0F1E400FFF7E5BF000038B50446D2
:102BE0000D4601F0A1FBD4F800312A78E2540133FC
:102BF000B3F5807F05D90D490D484FF4AF7201F050
:102C0000CFFA94F8082108BF0023C4F800312AB194
:102C1000C4F80431BDE8384001F09CBBD4F804216D
:102C20009A4204BF012384F80831F3E74D8F00086E
:102C30005E8F000870B504460E4601F075FBD4E9BE
:102C400040239A4202D194F80851B5B1E35C337045
:102C5000D4F804310133B3F5807F05D909490A4816
:102C60004FF4AF7201F09CFA4FF0000208BF134618
:102C7000C4F8043184F80821012501F06BFB2846D3
:102C800070BD00BF4D8F00085E8F000810B586B084
:102C90000446684680E80C0006A800E90C00039191
:102CA00010E90700034BE36084E80700204606B004
:102CB00010BD00BFC72A0008C36810B52BB904496E
:102CC00004484FF4FD7201F06BFABDE8104018475C
:102CD000BF8F0008CA8F000884B070B505AC0646E7
:102CE00084E80E0001F020FB94E80F0006F549751A
:102CF00085E80F00D6F8303343B147F6FF71304610
:102D0000FFF750FF10B12846FFF7D6FFBDE870402F
:102D100004B001F01FBBA0F1E400FFF7DDBF08B570
:102D2000D0F830331BB100F54970FFF7C5FF08BD7F
:102D300073B500F1E80504462846FFF702FF064692
:102D400094F8F03173B9204600F046FA50B12046AD
:102D500000F0DCFA0DF107018DF807002846FFF7B7
:102D60003DFFEDE794F836332BB194F8F03113B111
:102D70002046FFF7C9FE4EB12846FFF7E2FE28B90C
:102D8000204602B0BDE87040FFF7C9BF02B070BD79
:102D900070B5044688B001F0C7FA94F8BC30EBB1C6
:102DA00094F83633D3B92046FFF7C2FF94F8F061A8
:102DB000A6B90D4B0C4A04ADCDE902362146334687
:102DC0002846FFF763FF079B0196009395E80E00E6
:102DD000204600F023FA012384F8363308B0BDE81A
:102DE000704001F0B7BA00BF312D000838B5044675
:102DF00000F0AEF90F4B236000254833C4F8E430EF
:102E0000C4E97A55C4E9BD5584F8F05184F8FC5200
:102E100004F5407001F0EEFE01232046C4F8305363
:102E2000A4F8343384F83653C4F83853FFF7B0FFAE
:102E3000204638BD949B00082DE9F0470646894698
:102E400015469AB300F54077384601F0DBFE06F1EF
:102E5000E8084046FFF775FE0446A0B9404609EB76
:102E6000040AFFF76EFE30B9514640460134FFF7C1
:102E7000E1FEA542F2D13046FFF78AFF384601F065
:102E8000DDFE204607E096F8343338462BB901F0D2
:102E9000D5FE6FF00A00BDE8F08701F0CFFE0120FB
:102EA00001F077FE384601F0ADFED2E71046F2E7BA
:102EB000A0F1E400FFF7C0BF70B500F5407604460E
:102EC0000D46304601F09EFE2946204600F031FABC
:102ED0002046FFF75DFF304601F0B0FE002070BDD8
:102EE000A0F1E400FFF7E8BF73B5044690F8FC5288
:102EF00000F5FA76204600F080F958B10DF107018F
:102F00003046FFF797FE28B19DF80710204600F0E5
:102F100000FAEFE794F835333BB104F5FA70FFF7A8
:102F200010FE10B12046FFF7FDFD65B194F8FC32AC
:102F30004BB92046FFF7DEFD28B9204602B0BDE8B8
:102F40007040FFF7ECBE02B070BDF8B505460C4608
:102F5000164600F5FA773846FFF7F3FD20B1A719BA
:102F6000BC4205D13046F8BD2846FFF7BDFFF2E769
:102F700014F8011B284600F0CCF9F1E770B50446BF
:102F800088B001F0D1F994F8BD30FBB194F8353335
:102F9000E3B92046FFF7A8FF04F5FA70FFF7D1FD6B
:102FA000A0B90D4B0C4A04ADCDE9023021460346D1
:102FB0002846FFF76BFE0126079B0196009395E8D4
:102FC0000E00204600F02AF984F8356308B0BDE809
:102FD000704001F0BFB900BFE92E00082DE9F047AD
:102FE00006460F461546002A43D001F09AF90446DA
:102FF00030B12A4639463046BDE8F047FFF7A5BF55
:1030000006F54078404601F0FDFD06F5FA7996F8A0
:10301000FC3273B9A7EB040AA5420AEB040719D9DD
:1030200096F8FC32B3B939464846FFF7D7FD01346C
:10303000F2E796F8343393B1404601F0FFFD0120EA
:1030400001F0A7FD404601F0DDFD96F8FC32002BB3
:10305000F2D1DFE73046FFF791FFA542D7D84046CF
:1030600001F0ECFD002C14BF20466FF00A00BDE813
:10307000F0871046FBE7A0F1E400FFF7AFBF70B5A3
:1030800000F5407604460D46304601F0BBFD29466A
:10309000204600F099F92046FFF770FF304601F016
:1030A000CDFD002070BDA0F1E400FFF7E8BF83680C
:1030B0001A6843681A4214BF012000207047704705
:1030C000426810B48AB1D0E9033404F0010123B995
:1030D00059B161105158CB5801E00029F9D18168EC
:1030E00002EB64005DF8044B18475DF8044B704731
:1030F00070B5044600F14C05D0F8C410284600F025
:1031000059FBD4F8D820A2B1D4F8C8301BB9D4F8F0
:10311000CC30D8070DD5D4F8E010D4F8DC304E1000
:1031200004EB6100C90744BFA159CB5894F8D010F3
:103130009847D4F8B8102846FDF7A0FF2246284645
:103140000249BDE87040FDF71BBB00BF21330008FA
:10315000F8B51E4B03601E4B436000251D4B856078
:1031600017464C2204460E46C0E90555C0E90755EE
:10317000C360858445634564A0F8485029460061D2
:10318000104404F04FFBC4E92D57C4F8A45040F29A
:103190000113A4F8BC30B388A4F8BE30B389A4F8F6
:1031A000C0304FF6FF732046C4E93165C4E9365597
:1031B000C4F8CC5084F8D050A4F8D230A4F8D4305D
:1031C000C4F8E050FFF794FF2046F8BD2C9C00089F
:1031D000F1300008C130000838B50546044655F8FE
:1031E0004C3B1B6898472846FDF7F6FE23680546CA
:1031F0005B6820469847284638BD38B505460446E2
:1032000055F84C3B1B6898472846FDF7FDFE2368A0
:1032100005465B6820469847284638BD84B02DE9AE
:10322000F04709AE86E80E0003689DF834701B680D
:103230000546984795F8BC303C0103B18FB195F82D
:10324000BD300BB1012F0CD096E80F002C44983400
:1032500084E80F002B682846BDE8F0475B6804B09F
:10326000184704F1980801F05FF8A8440C9AD8F8C0
:103270000C3005F14C0982B10BB901F003FA96E864
:103280000F002C44983484E80F0001223946484648
:10329000FDF782FA01F05EF8DCE70BB101F008FA05
:1032A0000022C8F80C20F1E770B5124B86B000265A
:1032B0000360CDE9006602AD95E80E000446FFF715
:1032C000ADFF0123CDE90063204695E80E00FFF72E
:1032D000A5FF94F8BC3013B994F8BD301BB104F1CC
:1032E0004C00FDF7D9FD206A08B100F021FF20460F
:1032F00006B070BD2C9C000810B50446FFF7D4FF43
:103300002046E42101F043FC204610BD4C30FDF77F
:10331000B1BA10B54C300C46FDF7C8FA204610BDC6
:1033200000EB0110983008B5C3680BB1FFF7C4FC7F
:1033300008BD036870B504461B680D46984794F8AD
:10334000BC30AB4217D0E5B900F0EEFF2A46294663
:1033500004F14C00FDF720FAD4F8A4308BBB00F048
:10336000F9FF84F8BC5035B994F8BD301BB904F1AD
:103370004C00FDF791FD236820465B68BDE8704076
:10338000184794F8BD304BB9A2686368511004EB3C
:103390006200D20744BF6258D358984700F0C4FF78
:1033A000D4F8A430002BDAD004F19800FFF784FCA5
:1033B00001F068F90122002104F14C00FDF7ECF95D
:1033C000CDE701F075F9CAE7036870B504461B68DC
:1033D0000D46984794F8BD30AB4217D0E5B900F0E0
:1033E000A3FF2A46012104F14C00FDF7D5F9D4F8DA
:1033F000B4308BBB00F0AEFF84F8BD5035B994F803
:10340000BC301BB904F14C00FDF746FD2368204693
:103410005B68BDE87040184794F8BC304BB9A268AF
:103420006368511004EB6200D20744BF6258D3585E
:10343000984700F079FFD4F8B430002BDAD004F1CB
:10344000A800FFF739FC01F01DF90122114604F133
:103450004C00FDF7A1F9CDE701F02AF9CAE7704762
:10346000EFF3108372B6054A117831B90449DB4392
:1034700003F001030B70012313707047080C002048
:10348000090C002008B5EFF31083DB4313F00103B0
:1034900004D006490648362200F082FE054A137021
:1034A000054B1B7803B162B608BD00BF169000083B
:1034B00032900008080C0020090C0020014B1878FD
:1034C000704700BF080C0020F8B50F4604461546AB
:1034D0001E46FDF753FB013710D020685EB1A3688C
:1034E000186001212046FDF76DFB29462046BDE806
:1034F000F840FDF763BBE3680004F1E7F8BD13464D
:103500000022FFF7E1BF0022FFF7F9BF07B502462F
:103510008A4208460AD0531C08D0013005D0002347
:1035200004490548009301F093F8104603B05DF894
:1035300004FB00BF4C90000830010180B1F900305D
:103540005A1C01D118467047834201D14868704720
:103550000C31F3E7421C13B504460AD0FFF7EEFF27
:10356000431C06D10023044904480093224601F07D
:103570006FF802B010BD00BF5D90000830010180FF
:10358000B1F900305A1C01D118467047834201D16D
:10359000886870470C31F3E7F8B5446894F83260F6
:1035A0008EBB03685B689847226A82422BD02369EE
:1035B0002062821A1A40A368A2FB03C194F9342046
:1035C000CAB1606A10EB0C0541F10001002A1BDB57
:1035D000C2F12000A2F1200325FA02FC01FA00F05A
:1035E00021FA03F34CEA000C4CEA030CD1400CFA2C
:1035F00002F2AA1A6262D4E90A3213EB0C0341EB1D
:103600000202C4E90A32F8BDE76833463A46284662
:1036100004F0AAFF844607FB10506062EBE7824289
:1036200006D98A420BD9884294BF002001207047F6
:10363000884206D98A428CBF0020012070470120B1
:1036400070470020704700002DE9F0414668336B59
:1036500023F07F4828F0FF080546B8F1000F5CD141
:10366000FFF79AFF7368002B59D0D3E90003D6E91E
:103670000A1281429A4104D32B68BDE8F0415B698C
:1036800018476C68D4E90A12401A63EB020CD4E9BB
:103690000572E369824273EB0C031FD3E368A3FB5B
:1036A000000103FB0C1194F93330A3B1A26802F1BD
:1036B000FF3C1CEB000041F10001002B1BDBC3F1C0
:1036C000200CA3F12002D84001FA0CFC40EA0C00C7
:1036D00021FA02F21043874228BF0746236A1F449B
:1036E00023691F40336ABB4209D11249124840F294
:1036F000C91200F055FD434604F036FFEBE72B6896
:1037000038461B6998472B685B6898473A460146DC
:10371000306AFFF784FF0028AED1BDE8F0817369FD
:10372000306A326918442B681040BDE8F0411B69CB
:10373000184700BFBD900008CF90000870B505463F
:1037400000F0F2FDD5E90034DB68984794F8323098
:103750001BB1BDE8704000F0FDBD012384F831309D
:103760006368A3B12846FFF717FF6368D4E90A62CC
:10377000D3E9000186428A4109D36A68DB6852684E
:1037800063602368002BEBD090689847E8E700233C
:1037900084F831302846FFF757FFDAE7704700001A
:1037A000024B1B680BB1024818477047D401002038
:1037B0003C9C0008B1F90C20B1F90410FDF796BC4F
:1037C00008B5BFF35F8F1C4BD3F8902012F47C4FE9
:1037D000C2F3072104D1194919483B2200F0E0FC4B
:1037E0000022C3F8942010468A421FD11022C3F849
:1037F0009C20144AC3F8A0201322C3F89C20124A2C
:10380000C3F8A0201122C3F89C20104AC3F8A020BE
:103810000F4AC3F89C200F4AC3F8A0200722C3F820
:103820009420BFF34F8FBFF36F8F08BDC3F898206C
:10383000C3F8A0000132D7E700ED00E0379100089F
:103840004691000839F00206390702133FF50B13C1
:103850001200008039000213102300F007B8202363
:1038600000F004B8302300F001B840239C46F0B4C7
:1038700004AE7546E80801D3EFF309860E4F0FCE6C
:103880000FC70FBC0FC74046494652465B460FC79D
:103890001DCE3100A60A00D304316E0900D2483192
:1038A0001FC7EFF309806946EFF3148663C76046CC
:1038B000014900F079F800BF480C0020F0B52C4E0B
:1038C0002C4F85B000243546214656F8042B384647
:1038D000013400F00DFD0D2CF6D1AB6C02936B6C36
:1038E00001932B6C244C0093D5E90E23696B23487C
:1038F00000F0FEFC2168224800F0FAFCE16AA26AAE
:10390000A36AA06A266BE76B000CCDE90167009003
:10391000C3F307231B48D2B200F0EAFCA36A1E06D9
:1039200003D5616B184800F0E3FCA36A180403D5C3
:10393000A16B164800F0DCFCEB6C190712D514489B
:1039400000F0D6FC2B6DDA070FD5124800F0D0FC42
:10395000EB6C5B074CBF1048104805B0BDE8F04069
:1039600000F0C6BC0E4800F0C3FC0E48EEE700BFF6
:10397000480C00205391000800ED00E06191000820
:10398000B0910008BE9100080D9200081B9200083B
:103990002992000838920008689200087492000882
:1039A000589200084592000807B504460D461A488B
:1039B000012100F01BFC68BB184800F099FC302C7A
:1039C00019D0402C1CD0202C1FD11548154C00F0CC
:1039D0008FFC154800F08CFCFFF770FF134800F0D7
:1039E00087FC0D4B00221A700023114900932A46D0
:1039F000204600F02DFE0F480F4C00F079FCE8E760
:103A00000E480F4C00F074FCE3E70E480E4C00F03B
:103A10006FFCDEE70024E7E7150D00208092000828
:103A2000A99200083E01FF80D6920008E1920008AA
:103A300000930008B89200083F01FF80C19200087F
:103A40004001FF80CC9200083D01FF8070B5054623
:103A50001846136814466FF0004293420E460499CC
:103A600005D229B103F054FD431C05D1206070BD7F
:103A700015B1B34238BFE854236801332360F6E739
:103A80002DE9F04F8DB0914618229DF868309DF8D1
:103A900060A00293074688460DEB02000021DDE995
:103AA000164603F0BFFE029B002B0CBF20233023E1
:103AB000BAF1010F049325D1002E54DA644266EB6B
:103AC0004606D34606AB0393AAF10203DBB20025F8
:103AD0000593059B012B49D8BAF1020F04F00F039F
:103AE0000CBF374A374A2409D25C44EA06743609C7
:103AF000039B03F8012B039354EA060305F1010528
:103B0000E7D10CE0AAF10403D3F1000B4BEB030B5C
:103B100054EA0603D6D130238DF818300125BBF1C5
:103B2000000F48D0029B3BB11B9B00934A462D23BC
:103B300041463846FFF78AFF199B01359D4205DA59
:103B4000199BAB421DDCBBF1000F0AD0029B3BB9B5
:103B50001B9B00934A462D2341463846FFF776FFCC
:103B6000013D06AC22E04FF0000BD1E72046314684
:103B70000A22002304F0F8FC303204460E46D2B28A
:103B8000B6E71B9B00934A46049B41463846FFF725
:103B90005DFF199B013B1993D2E71B9B0093013DED
:103BA0004A46635D41463846FFF750FF002DF4D189
:103BB0000DB0BDE8F08F199B9D42C1DBD1E700BF7E
:103BC000A79C0008979C00082DE9F04F95B01C4673
:103BD000002383460D4613939246C2B1994216DBE9
:103BE0000CBF012301F1FF350D934FF000081AF8C7
:103BF000083083B9139BBBF1000F08D00D9A32B97E
:103C0000AB428ABF0D9B0BF803200BF805301398CD
:103C100015B0BDE8F08F252B40F0528208F101036A
:103C20001AF80320203AD2B20D2A07D842F6090129
:103C300021FA02F2D20748BF08F102031AF8032062
:103C40002A2A1DD14FF0000901330434CDF81C900D
:103C50001AF803102E290AEB030240F0E68051788F
:103C60002A292AD000260A275378303BD9B20929BD
:103C700002F1010040F2D580CAF1010313441FE0B4
:103C8000302A13D101331AF80320302AFAD0012246
:103C9000079253444FF00009194611F8012B303AAE
:103CA000D0B2092804D9A3EB0A03D1E70022EFE739
:103CB0000A2303FB09290B46EEE754F8046B023391
:103CC0001AF80320682A40F0B3800AEB0302527806
:103CD000682A00F0BD801C22AF498A5C02F00F0107
:103CE000CB180B931AF80370692F00F2ED80572F51
:103CF00000F2BF80A7F14603012B00F2EA800734EF
:103D000024F00704B4EC027B51EC170B8DED0E7B15
:103D100004F042FC0A910690099104F03DF9024634
:103D20000B46DDE90E0103F0ADFF0B460246CDE97F
:103D300010236FF000439E4200F02C81002E00F013
:103D40005481012200230C9208930A229E4200F320
:103D500027810C98089904F01FF9DDE9102304F07D
:103D600049F90022074688460023DDE90E0104F0E8
:103D7000B3FB1090002800F01F8143463A46874964
:103D8000002003F07FFF04F007FC0C9B9842089B87
:103D900088469941074608DB069B013B06930A9B30
:103DA00063F1000309930027B8469DED0E7B731C59
:103DB0008DED107BA9EB030929EAE979069B099AA5
:103DC000134340F02081DDE910010022002304F0BC
:103DD00083FB002800F017811E9B0593079BCDE90C
:103DE00003930423029300220023CDE9002313AAA6
:103DF00029465846FFF744FE002E00F030811E9BF6
:103E0000009313AA2E2329465846FFF71FFE1E9B38
:103E100005930123CDE903630023CDE900780293E4
:103E20009CE007FB063602461EE76FF0004647E7B8
:103E30006C2A06D10AEB030252786C2A0AD020229F
:103E40004AE74C3AD2B22E2A7FF646AF002245E727
:103E5000722243E7822241E7082B3AD8DFE813F0C9
:103E6000140139003900030139006A0039003900B2
:103E70006A00A7F15803112B2BD801A151F823F0A8
:103E8000353F0008D33E0008D33E0008D33E00086B
:103E9000D33E0008D33E0008D33E0008D33E0008BE
:103EA000D33E0008D33E0008D33E00084D40000832
:103EB000EF3E0008D33E0008FF3C0008FF3C00082E
:103EC000D33E0008EF3E0008A7F17003D9B20829DD
:103ED000C2D91E9B009313AA252329465846FFF7F3
:103EE000B5FD0B9B252F18BF43460B93B7E0822AE5
:103EF00010D1073424F007031C465B6854F8082BE4
:103F00001E99059107990092CDE903910121029133
:103F1000019323E0112A54F8043B07D0722A15BFFD
:103F20001A465AB2D31743F3C013E9E71AB243F360
:103F3000C033E5E7822A17D1073424F0070214467C
:103F4000526854F8083B1E9905910799752FCDE9E1
:103F5000039119D10021CDE90032029113AA29461B
:103F60005846FFF78DFD7AE0512A54F8043B09D0FA
:103F7000722A03D0112A03D00022E4E7DBB2FBE768
:103F80009BB2F9E7DA17DEE7582F01D10321E2E708
:103F90000221E0E70626D4E6689C00080000E03F26
:103FA0000C980899A0FB0270089008980C97514350
:103FB000014408910133C9E6464B00223846414688
:103FC00003F062FE04F0E8FA0C9B9842089B8846D6
:103FD00099410746FFF6E9AE069B109F0133069311
:103FE0000A9B43F100030993DEE63A4B002204F0FA
:103FF00091FAA0B1069B013306930A9B43F100039B
:1040000009933746B0461E9B0593079BCDE9039362
:1040100001230293069B0093099B0193E7E6DDE9E8
:1040200010012D4B002204F057FA60B1069B5F1E71
:104030000A9B63F1000857EA08033FF4CDAE0697E8
:10404000CDF82480DDE73746B046B7E61E9A14F86F
:10405000043B0092294613AA5846FFF7F7FC0B9B36
:1040600003F10108C3E554F8047B3E443B78002B80
:10407000F5D0B742F3D01E9A0092294613AA5846AB
:10408000FFF7E4FC0137F1E71E9B54F8046B009343
:1040900013AA302329465846FFF7D8FC1E9B0093ED
:1040A00013AA782329465846FFF7D0FC1E9B059398
:1040B0000023CDE90333032302930096F31727E788
:1040C0001E9A0092294613AA5846FFF7BFFCCDF866
:1040D0002C80C4E70000E03F0000E0BF0FB41FB534
:1040E0000849096806AB896853F8042B0091002041
:1040F0006FF000410393FFF767FD05B05DF804EB37
:1041000004B07047A407002013B500240094FFF703
:104110005BFD02B010BD07B5134600900A460020B3
:104120006FF00041FFF750FD03B05DF804FB0000A5
:10413000024B1B6803B11847704700BF9C0C00205E
:10414000036870B51B690122002104469847051ECB
:104150000DDB236802221B69002120469847236853
:10416000064629461B6900222046984735462846C0
:1041700070BD0000034B186818B14FF0FF3101F01B
:1041800079BC7047B8170020024B186808B101F0DD
:1041900089BC7047B817002002F0DABC02F0D4BB2B
:1041A00007B50B46009201460022014800F050FA84
:1041B0004401FF8003460122D3E84F0FC3E8412F9B
:1041C000C0B20029F8D17047D0E85F3F5B18C0E863
:1041D000523F002AF8D198B27047D0E85F3F5B1A8F
:1041E000C0E8523F002AF8D198B270470346D3E89E
:1041F0004F0FC3E8421FC0B2002AF8D17047000039
:1042000000B589B000F090F81C22002101A803F04D
:1042100009FB052101A8FFF776F9114E114D042481
:10422000039B019A1A60304600F0B6FC019B049A89
:104230001B041360304600F0AFFC013CF0D10424B5
:10424000039B019A1A60284600F0A6FC019B049A81
:104250001B041360284600F09FFC013CF0D1DEE710
:10426000F0490200801A060073B500220146044698
:10427000022000F017FB0D2600F056F8002225461C
:1042800014F8013B23B902B0BDE8704000F062B8F9
:104290000A2B09D10D2A07D001220DF107010220B6
:1042A0008DF8076000F0FEFA01222946022000F096
:1042B000F9FA14F8012CE2E700B5A3B002460B4668
:1042C00001A88421FFF720FF832806D9074B1A682D
:1042D0001B79CDF883208DF88730002802DD01A8F6
:1042E000FFF7C2FF23B05DF804FB00BF1093000886
:1042F0000FB407B504A951F8040B0191FFF7DCFFD7
:1043000003B05DF804EB04B07047EFF31080C043D6
:1043100000F001007047EFF30580003818BF01205E
:104320007047FFF7CBB8000008B5FFF799F8064AC9
:104330001368591C04D1054905483F22FFF730FF97
:104340000133136008BD00BFA00C00205A93000881
:104350006A930008044A136823B1013B13600BB948
:10436000FFF790B8704700BFA00C002008B50B48BD
:10437000FFF720FF28B1FFF7D7FFBFF34F8F20BF14
:10438000FDE7FFF7C8FF08B1FFF73AFFFFF7BDFFF2
:104390000028F9D0012000F0D7FB00BF140D002049
:1043A0002DE9FF41474C0E46216801F0C043B3F1AF
:1043B000C04F0CBF4D428DB2C1F307438046174634
:1043C00041482A46FFF794FF6FF498731D44132D5C
:1043D0000FD8DFE805F00A5154575A605D630E0E9E
:1043E0000E0E0E0E0E0E0E0E0E66A1683748FFF76B
:1043F0007FFF4046FFF738FF61683548FFF778FFD9
:104400004EB13448FFF730FF3046FFF72DFF3248FA
:104410003946FFF76DFFA1683048FFF769FF236851
:104420002F4A1A44012A02D92E4A93423DD1A0684C
:1044300000283FD1E368002B42D059682A4A00295E
:1044400008BF1146E2690392A26902926269019271
:1044500022690092254D264A002808BF2A46254891
:10446000FFF746FF21682448FFF742FF234804B0C6
:10447000BDE8F041FFF73CBFA1682148B7E7A1685C
:104480002048B4E7A1682048B1E7A1681F48AEE71B
:10449000A1681F48ABE7A1681E48A8E7A1681E48AD
:1044A000A5E71E48FFF724FFA3E71D4A9342BED0AD
:1044B0000020BFE7C06C80F00800C0F3C000B9E77F
:1044C0000949BFE7A80C0020B09300080194000838
:1044D000A9940008BA940008C2940008C694000881
:1044E000C2FE007F4001FF809B930008FF920008FE
:1044F000A5930008DA940008339500088295000817
:10450000179400082794000836940008499400087E
:104510005D94000871940008809400089694000847
:104520003D01FF807047000070B5294B8EB010EA46
:10453000200538BF1D460C4616460021302202A831
:1045400003F070F9234B01952B44012B039402D9FE
:10455000214B9D4233D1E36B0293636B08931F4B56
:104560005B690493DA6B05925A6B1B6B0692079397
:10457000FFF7DAFE1A4A13680133012B136009D1E1
:1045800001AD0FCD174C0FC40FCD0FC40FCD0FC40D
:104590002B68236001AC0FCC134D0FC50FCC0FC59A
:1045A0000FCC0FC523682B60104B1B68A5F13000A2
:1045B0005BB19847FFF7CEFE00200EB070BD0C4BEC
:1045C0009D42C8D0029601ABC8E7FFF7ABFFF1E709
:1045D0000101FF80C2FE007F4001FF80DC0200205D
:1045E000100D0020DC0C0020A80C0020A40C0020E2
:1045F0003D01FF800FB407B50D4801217546FFF757
:10460000F5FD044688B901462A460A48FFF78CFFA3
:10461000094822462146FFF7C3FE049805A90191E7
:10462000FFF74AFE0548FFF71FFEFFF79FFE00BF9A
:10463000150D00200001FF809C950008FE920008E7
:1046400000207047014B1878C0B27047150D00204C
:1046500080B506460C460A480121F04617461D461D
:10466000FFF7C4FD48B9424639463046FFF75CFFC4
:10467000029A29462046FFF793FEFFF777FE00BF18
:10468000150D002013B5074C01212046FFF79CFDB6
:10469000034628B90090228803490448FFF7D8FF51
:1046A00002B010BD160D0020B19500082301048052
:1046B00013B5094C01212046FFF78FFD4FF6FF731C
:1046C000984206D100230093228804490448FFF74A
:1046D000BFFF02B010BD00BF160D0020D39500082B
:1046E00024010480034B188880B2B0FA80F040099E
:1046F000704700BF160D002008B5FFF715FEFFF745
:10470000F1FF28B1FCF788FEBDE80840FFF722BEA4
:10471000FCF770FEF8E700207047002070470000AB
:10472000074A084913681844884289BF064B10603D
:104730000C224FF0FF308CBF1A601846704700BF44
:10474000D801002000FC0120402A002001207047F1
:104750000120704708B501F0E3FE08BD08B501F07F
:10476000E7FE08BD10B50446037803F00303012BF0
:1047700008D0FFF7FFFC237803F00302012A03D1DE
:10478000FFF702FD002010BD2AB10549054840F29F
:10479000D362FFF705FD43F0020323700120F2E727
:1047A000369600084896000808B5037803F003021F
:1047B000022A05D00749084840F2DC62FFF7F0FC06
:1047C00023F0030343F001030370BDE80840FFF743
:1047D000DBBC00BF36960008669600083F2870B51F
:1047E00004462CDC174E56F820305A1C25D10228DE
:1047F00023DCFFF792FF0346E8B92046FFF78BFF63
:104800000346C0B9104D2B68BFF35B8FDB0711D493
:104810002846FFF7A7FF68B10C490D484FF4E13275
:10482000FEF7E4FA0B4A0C490948FFF78FFF2846C8
:10483000FFF7BAFF094B46F82430184670BD002335
:10484000FBE700BFDC010020180D0020B89C000829
:104850001C0D0020C8010020712A0008000E002055
:1048600038B5041E06DA03F0ABF8092303604FF0F5
:10487000FF3038BDFFF7B2FF084B002543F8245046
:104880000028F0D003685B699847041E04DA03F03F
:1048900097F864420460EAE72846EAE7DC01002072
:1048A000FFF7DEBF38B50C461546FFF797FF38B95E
:1048B00003F086F8092303604FF0FF34204638BD2B
:1048C00003682146DB682A469847041EF6DA03F09F
:1048D00077F864420460EFE738B50C461546FFF7F9
:1048E0007DFF38B903F06CF8092303604FF0FF3403
:1048F000204638BD036821469B682A469847041E17
:10490000F6DA03F05DF864420460EFE710B5FFF7F4
:1049100065FF30B903F054F80923036000242046F2
:1049200010BD0368DB699847041EF8DA03F048F805
:1049300064420460F2E700002DE9F74F06460F4697
:104940009046FFF7E8FC054630B100232C492D487E
:1049500000933246FFF77CFEFFF7D7FC0028F4D027
:10496000B8F1000F09DA03F02BF8162303604FF0BB
:10497000FF34204603B0BDE8F08F3046FFF7C6FF96
:10498000044640B1DFF880A01AF806902C464FF09C
:104990000D0BA84512DCA045EBDDA8EB040239198C
:1049A0003046FFF77FFF0028E1DB0444002CC1BF45
:1049B0003F19154B17F8012C9A55DAE77A5D0A2A48
:1049C0001AD1B9F10D0F17D0AC420BDA2A1B3919E5
:1049D0003046FFF767FF0028C9DB0444A542C8DC66
:1049E0000AF80690094901223046FFF75BFF0028CC
:1049F000BDDBBED00AF806B017F805900135C8E750
:104A00009D9600082F01018058100020D7960008BD
:104A1000FFF77CBF7FB504460D461646FFF77BFCCB
:104A200030B100231F49204800932246FFF710FEB3
:104A3000FFF76BFC0028F4D0002E07DA02F0C0FF6D
:104A4000162303604FF0FF3004B070BD2046FFF71F
:104A50005DFFF8B1154E01220DF10F012046FFF761
:104A60003BFF0028EEDBEFD09DF80F300D2B08D177
:104A7000325D0A2A0AD01A460A2332552B700120C9
:104A8000E2E70A2B04D1325D0D2AF3E73355E2E762
:104A90001A46F2E732462946204604B0BDE8704087
:104AA000FFF71ABFD99600082F0101809810002047
:104AB00038B50C461546FFF791FE38B902F080FF75
:104AC000092303604FF0FF34204638BD03682146B8
:104AD0001B692A469847041EF6DA02F071FF644209
:104AE0000460EFE7FFF7E4BF10B5FFF777FE30B9DA
:104AF00002F066FF092303604FF0FF3010BD03682A
:104B00009B699847041E04DA02F05AFF644204606D
:104B1000F2E70020F2E700000A4D08B52B680446D2
:104B2000986802F0EDFB2B68D86802F0E9FB0120E1
:104B3000FFF7DAFF0220FFF7D7FF0CB1FFF760FBAA
:104B4000FEE700BFA407002008B5FFF7E5FF38B572
:104B50000D46FFF743FE044630B902F031FF09234A
:104B600003604FF0FF3038BD0368DB6998470028C9
:104B70000CBF4FF400434FF400536B602368204692
:104B80009B6A984728610020EDE7FFF7E0BF01F03E
:104B9000D7BF00F075B80000034A516A536A5B1A28
:104BA0008342FBD3704700BF000C00401FB50023B9
:104BB00003620D4B002918BF0B460093031D02939F
:104BC0001C230446039368460B23019300F03AFF2D
:104BD000206038B9FFF736FD20B9044904483E2269
:104BE000FFF7DEFA04B010BD1597000870970008B3
:104BF0007A97000810B500210446FFF7D7FF20463A
:104C000010BD000037B504464FF0FF31006800F0DA
:104C100031FF054648B1FFF715FD034640B9009046
:104C2000044905482A46FFF713FD236A013323622E
:104C300003B030BD9E97000815010280036A013B56
:104C400013B50362006800F02DFF044648B1FFF77A
:104C5000F9FC034628B90090034904482246FFF7AF
:104C6000F7FC02B010BD00BFB0970008170102802A
:104C700010B50446006800F02DFF204610BD00006E
:104C800008B538B100F088F820B103490348E322A1
:104C9000FFF786FA08BD00BF05980008999800083C
:104CA0001EF0040F0CBFEFF30880EFF30980816959
:104CB00011F8021C002932D101B590E80F10E0472D
:104CC000BDE800508CE80300244B93E806009142B5
:104CD00008BF70471A6041B91EF0100F10D1204B69
:104CE000186820F0010018600AE02CE9F00F1EF0AF
:104CF000100F08BF2CED108A81F822E0C1F838C0EF
:104D0000906B92F8221061F0FF0E1EF0100F08BF9A
:104D1000B0EC108AB0E8F00F80F309887047114AB0
:104D200013689942FAD801B552F821C00FC8E0477C
:104D3000BDE80050CCF80000704701B500F02CFF32
:104D4000BDE80140EFF3098CBEE701B500F0E8FED5
:104D5000BDE80140EFF3098CB6E70000F002002047
:104D600034EF00E0789D000808B5014630B96FF0D7
:104D7000030000F02AF86FF0030008BD132001F0D3
:104D800039FA30B94FF0FF3000F01FF84FF0FF3024
:104D9000F3E70020F1E7000008B5EFF305834BB916
:104DA000EFF3108333B9EFF311831BB9DFF814C0AD
:104DB00000DF08BD6FF0050000F007F86FF0050098
:104DC000F7E700BF694D000870477047EFF31083A5
:104DD0002BB9EFF31180003818BF01207047012074
:104DE0007047000070B5464C237A012B00F0858097
:104DF00033B14FF0FF3001F077FC4FF0FF3070BD62
:104E0000404DD5E90B61EB68E3652B8AA4F854307B
:104E10003046AB68236400F007F908B1C4F880603D
:104E2000D5E90561304600F0FFF808B9D4F8806094
:104E30006667D5E90761304600F0F6F808B9D4F89E
:104E40008060A667D5E90961304600F0EDF808B941
:104E5000D4F88060E6676E6B3EB1D6E90223316814
:104E6000304600F04BF9C4F88460AE6B3EB1D6E931
:104E700002233168304600F041F9C4F88860EE6BD7
:104E80003EB1D6E902233168304600F037F9C4F864
:104E90008C602E6C3EB1D6E902233168304600F0BA
:104EA0002DF9C4F890606E6C3EB1D6E902233168EA
:104EB000304600F023F9C4F89460AE6C3EB1D6E9F8
:104EC00002233168304600F019F9C4F89860EE6C9E
:104ED0003EB1D6E902233168304600F00FF9C4F83C
:104EE0009C602D6D3DB1D5E902232968284600F06C
:104EF00005F9C4F8A0500123237200207FE700BF0A
:104F0000DC020020089D000870B5254D2B7A012B8E
:104F100007D06FF0060001F0E7FB4FF0FF342046AA
:104F200070BD01F0A9F910B94FF0FF30F3E71D4A49
:104F30001D4E1E497068FF2382F8223092F82230FD
:104F4000D26863F0FF03DB4314BFB3FA83F320237B
:104F5000C3F12003C2F30222934298BF531CFE22E6
:104F600002FA03F30F4ADBB2D37701F045FA0446A5
:104F70000028D9D101F078FA286101F05DFA0C48D7
:104F800000F066FF00F0CAFF3368DB074CBF022366
:104F9000032383F31488BFF36F8F02232B72BEE7C2
:104FA000DC02002000ED00E0089D00084B4D0008E9
:104FB000F8020020704738B504460D46FFF704FF9D
:104FC00029462046BDE8384001F050BB08B5FFF740
:104FD000F1FFEFF3058333B16FF0050001F084FBBF
:104FE0006FF0050008BDFFF7F1FE0028F4D1DFF8EF
:104FF00008C000DFF6E700BFE54D000808B5EFF395
:10500000058333B16FF0050001F06EFB6FF0050012
:1050100008BDFFF7DBFE0028F4D1DFF808C000DF91
:10502000F6E700BF094F000810B5034688B10843F2
:1050300010F007000DD117290AD91960083910227C
:10504000CC189C605A60585099684A60D86001201A
:1050500010BD0020FCE770B5034668B361B3032AB6
:105060002AD80F3121F0070600F1080421462468F0
:105070004D68601A25F00305401B864203D920685D
:105080000028F3D170BD5D68186835445D60034445
:10509000083B5868854288BF5D604B6832431BB946
:1050A0004A6001F10800EDE723F00303C818CC5073
:1050B000426008600830E5E70020E3E710B50346EA
:1050C00080B1C9B1A1F1080400F108020021A24297
:1050D00009D1506820F003045868001B586041B99A
:1050E0005160012010BD106811460028FAD0024618
:1050F000EDE713680B60F4E70846F3E730B5C0B19D
:1051000089B1C2B1CBB10024C0E9014202FB01F474
:105110001D190160C360436105611846013904D15E
:10512000A41A19510121084630BD8518056028468A
:10513000F4E70146F7E71146F5E71946F3E710B53E
:1051400070B100F1140353E8002F12B9BFF32F8F91
:1051500004E0116843E8001404B1F4E70AB910460A
:1051600010BD043050E8003F591C40E8001404B161
:10517000F8E7F4E730B5F0B1C3688B421BD8036998
:105180008B4218D900F114031A680A60BFF35F8FCD
:1051900053E8002F0C689442F6D143E8001505B19E
:1051A000F2E7043050E8003F5A1E40E8002101B108
:1051B000F8E7002030BD6FF00300FBE7EFF310834A
:1051C0002BB9EFF31180003818BF01207047012080
:1051D0007047D1E9013223B19A608A681AB15360ED
:1051E0007047C262F9E70363704700002DE9F84F8A
:1051F0008846074638B131B1B0FA80F1B8FA88F381
:105200000B441F2B08DC6FF00301002001F07EFA35
:1052100000242046BDE8F88F08F1030626F00306B7
:105220000C3606FB00FAF2B19468D2F80090D2E98D
:1052300004533CB1A10702D1D268332A05D86FF0DC
:105240000801E2E7D268002AF9D13DB115F0030B5D
:1052500001D19A4552D96FF00901D6E7002BFAD156
:105260001CB19B460CE091461546264BD3F8A00096
:10527000D8B1FFF764FF0446A0B14FF0010B35BB76
:10528000204B0022D86F5146FFF7E5FE0546C0B916
:10529000BBF1000F06D01B4BD3F8A000214658B13C
:1052A000FFF768FF6FF00401AFE7D3F88000012239
:1052B0003421FFF7D0FEDEE7D3F88000FFF7FEFED3
:1052C000F0E75246002102F0ADFA4BF0020BFA2350
:1052D00023700023C4E90983C4E90B33A360324679
:1052E0002B4684F802B0C4F80490394604F10C004F
:1052F000FFF704FF034B044A1A678AE7002CE6D144
:10530000B3E700BFDC0200209953000810B500F19C
:10531000280353E8002F12B9BFF32F8F04E0511E6A
:1053200043E8001404B1F4E70AB9002010BDC06AD4
:1053300001220028F9D0811CD1E84F3FC1E8442F59
:1053400004B1F9E7DBB2002BF0D08068F1E7036B22
:1053500030B5E3B1CD780024DA78AA420FD31A46EB
:10536000C1E901248AB19160A4B16160283050E89C
:10537000003F5A1C40E8002101B1F8E730BD5A68EF
:105380001C46002AECD01346E6E7C162ECE7C1E90F
:105390000133C1620163E9E7F8B5877804468FB34A
:1053A000C568014600272846FFF713FF277005F15F
:1053B0000C042046FFF7DEFEAB68002B48D02046E9
:1053C000FFF7BDFE0446002842D0284600F040FD0D
:1053D0003A460646394600F0B7FE304600F094FDE6
:1053E0006A6A8168064604F10C0002F02DFBF9237D
:1053F0002370A770F368E37021462846BDE8F840A3
:10540000FFF7A5BF8568AB68002BF5D05B78832BD1
:10541000F2D1284600F01CFD3A460646394600F017
:1054200093FE304600F070FD06466A6A806804F11B
:105430000C0102F009FBF3680BB1E2781A7000234B
:105440002370214605F10C00BDE8F840FFF792BE3D
:10545000F8BD00002DE9F0410E4617469846044677
:1054600018B10378FA2B00D141B920466FF003013F
:1054700001F04CF96FF00300BDE8F0818368BBB127
:105480005B78832B14D100F0E3FC01220546002158
:1054900000F05AFE284600F037FD0546626A806833
:1054A000314602F0D1FAEB6803B11F700020E3E748
:1054B00004F10C00FFF743FE054670B13146626A05
:1054C0000C3002F0C1FAF9232B700023AB70EF709F
:1054D00029462046FFF73BFFE8E7B8F1000F11D05F
:1054E0004146932000F086FE10B96FF00100C3E73B
:1054F000064B2046596900F099FCEFF30983C3E994
:105500000267F2E76FF00200B6E700BFDC0200209E
:105510002DE9F0410F4616469846044618B1037827
:10552000FA2B00D141B920466FF0030101F0EEF8EB
:105530006FF00300BDE8F081FFF7E8FE05460028A4
:105540003AD001462046FFF744FE626A05F10C019D
:10555000384602F079FA0EB1EB783370002704F187
:105560000C062F7029463046FFF704FEA3680BB9DE
:105570000020DFE73046FFF7E2FD05460028F7D0C0
:10558000204600F065FC39460646012200F0DCFDAD
:10559000304600F0B9FC626A8168064605F10C00ED
:1055A00002F052FAF9232B70AF70F368EB702946C2
:1055B0002046FFF7CCFEDBE7B8F1000F11D04146E3
:1055C000832000F017FE10B96FF00100B2E7064B20
:1055D0002046596900F02AFCEFF30983C3E90276FB
:1055E000F2E76FF00200A5E7DC02002008B5064BE9
:1055F00008219A6ED86EFFF7F9FD044BD864B0FA13
:1056000080F04009404208BD089D0008DC020020EF
:105610002DE9F04106460F4690461C46EFF3058300
:105620004BB196B930466FF0030101F06FF86FF09F
:105630000300BDE8F081FFF7C1FD0028F1D1DFF8DC
:105640004CC03046234600DFF3E73378FA2BE9D12C
:10565000002FE7D0002CE5D106F10C00FFF76FFD1D
:10566000054680B1726A39460C3002F0EDF9F92333
:105670002846C5E901762B70AC7085F8038000F0F0
:10568000D3FA2046D5E76FF00200D2E75554000860
:10569000F8B504460F4616461D46EFF3058343B1A1
:1056A0008CB920466FF0030101F030F86FF0030071
:1056B000F8BDFFF783FD0028F2D1DFF848C020468F
:1056C0002B4600DFF4E72378FA2BEAD1002FE8D04D
:1056D000002DE6D12046FFF719FE054670B100F116
:1056E0000C01626A384602F0AFF90EB1EB78337004
:1056F0002846EC6000F098FA0020D9E76FF002002D
:10570000D6E700BF11550008EFF310832BB9EFF374
:105710001180003818BF0120704701207047000039
:1057200038B5034698B3D0E90045806860B110F001
:10573000030202D1DB681B2B24D86FF00801002084
:1057400000F0DEFF00201CE0DB68002BF5D1114BE0
:10575000D3F8940030B9D3F8800001221C21FFF760
:105760007AFC01E0FFF7EBFC70B1012383700023AA
:10577000C0E90233C0E90433F5220270C570446009
:10578000037638BD1346F1E76FF00401D8E704460D
:105790000546DCE7DC020020294B70B55D69044654
:1057A0000E4635B96FF0070100F0AAFF4FF0FF3049
:1057B00070BD10B10378F52B07D020466FF00301C0
:1057C00000F09EFF6FF00300F2E7037E53B9C0E9DB
:1057D0000353EB6A436103B11861EC620123237642
:1057E0000020E5E7C278D1070DD5C168A9420AD1EA
:1057F000FF2B06D16FF00F0100F082FF6FF0020067
:10580000D6E70133EBE7002EF8D093070AD5E0681E
:1058100095F9203090F920209A4203DA80F8203060
:1058200000F028FB3146532000F0E4FC10B96FF083
:105830000100BDE72946204600F0F8FAF7E700BF6F
:10584000DC0200202F4B5A6970B5044632B96FF064
:10585000070100F055FF4FF0FF3070BD10B1037825
:10586000F52B07D020466FF0030100F049FF6FF0E1
:105870000300F2E7037E33B96FF00E0100F040FF42
:105880006FF00200E9E7C168914202D06FF00D01AC
:10589000F4E7013BDBB203760BB10020DDE743699F
:1058A0000BB1016919612169E9B14B6192F92130AC
:1058B000D56AD5B982F82030A36883B1204600F0BC
:1058C000C7FA06462A46294600F03EFCF36A6361A1
:1058D000C4E9036503B11C610123F462237600204F
:1058E00000F024FBD9E7D362E0E7E978890706D521
:1058F000A96821B191F920108B42B8BF0B466D69A0
:10590000D7E700BFDC02002010B5044610B10378D1
:10591000F52B07D020466FF0030100F0F1FE6FF089
:10592000030010BD037EBBB16369C0680BB122697F
:105930001A612269BAB1536190F92120C36AA3B9EF
:1059400090F92030934203D080F8202000F092FAA2
:10595000A068B0B900F0EAFA00232370A378DB074F
:1059600018D40020DDE7C362E6E7D978890706D5B9
:10597000996821B191F920108A42B8BF0A465B6943
:10598000DDE7204600F064FA00226FF0020100F02B
:10599000DBFBDDE7064BD3F89400214610B1FFF79F
:1059A000E9FBDEE7D3F88000FFF788FBD9E700BF0B
:1059B000DC0200202DE9F0410446002601270CB945
:1059C000BDE8F081E378D4F814801B0712D5A368F2
:1059D00026767BB1204600F03BFA002205461146B0
:1059E00000F0B2FBEB6A6361C4E9035603B11C61CA
:1059F000EC6227764446E2E710B4C3789B071DD5D6
:105A0000C06890F92120C36ADC78A40709D59C6896
:105A10008C4208BF8C6824B194F92040A242B8BFE0
:105A200022465B69002BEFD190F92030934205D0DC
:105A300080F820205DF8044B00F01CBA5DF8044BA0
:105A40007047000008B50246EFF3058333B100202C
:105A50006FF0050100F054FE002008BDFFF754FE72
:105A60000028F4D1DFF808C0104600DFF5E700BFDA
:105A70002157000808B50246EFF305833BB11046F5
:105A80006FF0050100F03CFE6FF0050008BDFFF768
:105A90003BFE0028F3D1DFF808C0104600DFF5E731
:105AA0009957000808B50246EFF305833BB110464D
:105AB0006FF0050100F024FE6FF0050008BDFFF750
:105AC00023FE0028F3D1DFF808C0104600DFF5E719
:105AD0004558000808B50246EFF305833BB1104670
