:020000040800F2
:1000000000C0002095020008E5020008014A00082F
:10001000074A00080D4A0008134A000800000000C3
:10002000000000000000000000000000ED62000879
:10003000E5020008000000008763000897630008DD
:10004000E5020008E5020008E5020008E5020008F4
:10005000E5020008E5020008E5020008E5020008E4
:10006000E5020008E5020008E5020008151800088E
:10007000211800082D180008391800084518000834
:10008000511800085D180008E5020008F90800088A
:10009000FD070008E5020008FD080008E502000869
:1000A000E5020008E5020008E5020008E502000894
:1000B000E50200080000000000000000E502000862
:1000C000E502000800000000000000004D160008D6
:1000D00000000000E5020008E50200080000000042
:1000E000E5020008E5020008000000000000000032
:1000F0000000000000000000000000000000000000
:100100000000000000000000000000005916000878
:100110000000000000000000E5020008E502000801
:100120006918000875180008811800088D18000863
:100130009918000800000000000000000000000006
:10014000E5020008E5020008E5020008E5020008F3
:10015000A5180008B1180008E5020008E50200082B
:10016000E5020008E5020008E502000800000000C2
:10017000E5020008E50200080000000000000000A1
:10018000E5020008E5020008E50200080348044B08
:10019000834202D0034B03B118477047300200205E
:1001A00030020020000000000548064B1B1AD90F42
:1001B00001EBA301491002D0034B03B1184770476C
:1001C00030020020300200200000000010B5064C74
:1001D000237843B9FFF7DAFF044B13B10448AFF3B8
:1001E00000800123237010BD3002002000000000B9
:1001F000C0AC000808B5054B1BB105490548AFF375
:100200000080BDE80840FFF7CFBF00BF000000003E
:1002100034020020C0AC0008A3F5803A704700BF4C
:10022000174B002B08BF134B9D46FFF7F5FF00212E
:100230008B460F461348144A121A08F0E7FA0E4B81
:10024000002B00D098470D4B002B00D09847002082
:10025000002104000D000D48002802D00C4805F0D4
:100260009FFD08F037FB2000290007F0EFFC05F0A8
:1002700093FF00BF0000080000000000817B000821
:1002800000C000203002002038250020A15D0008B9
:1002900000000000DFF834D003F076FA002103E01C
:1002A0000B4B5B58435004310A480B4B42189A429F
:1002B000F6D30A4A02E0002342F8043B084B9A4274
:1002C000F9D3FFF7ADFF7047FEE7000000C0002044
:1002D00044AD000800000020300200203002002061
:1002E00038250020FEE730B597B01422002168467B
:1002F00008F08CFA4022002106A808F087FA0425AD
:10030000012405A80595079402F0F6F810B1002025
:1003100017B030BD10230593B0230D930223CDE910
:100320000B40CDE90F3406202823CDE91103072324
:1003300005A8CDE91335159502F0DEF8044600282E
:10034000E5D102F089FE0F22032329466846CDE954
:100350000023CDE90244049402F078FBB0FA80F067
:100360004009D5E708B5FFF7BEFF10B9014805F011
:10037000BDFB08BDB09700082DE9F341A1F1F008DD
:100380001FFA88F8B8F10F0F04460D461DD93949F8
:10039000284604F0ABF837490746284604F0BCF875
:1003A000B8F10F0F0646276007D90146284600F02E
:1003B000A1FD0021284600F02DFE236801330BD15A
:1003C0002D492E48352205F055F92D49284604F0CF
:1003D0008DF82B490746E0E7731C03D126492948CD
:1003E0003622F0E700234FF48022C4E901230422DF
:1003F000626101226365C4E90923C4E903332383ED
:1004000084F82030E36284F8303084F8383003F127
:100410008043E26103F504334FF48052C6F384361F
:1004200084F866606263DA6CA4F8645042F40052A7
:10043000DA64DA6C02F400520192019AD3F888204F
:1004400042F04052C3F88820204601F05DFA10B116
:100450000D4805F04BFB7F21204601F024FE30B90A
:100460007F21204602B0BDE8F04101F0D4BD02B0CA
:10047000BDE8F081389700081B9800082D98000807
:1004800008970008579800087098000810B586B0C3
:10049000044618220021684608F0B8F90422062311
:1004A0007F21CDE90132CDE9031294F86620122AAA
:1004B0004FD8DFE802F00A0E282A2C2E30323436CC
:1004C000383A3C3E404244464800234A0092029358
:1004D00001E0224B00936946204601F03BFB204699
:1004E00001F024FD0A21204601F0E0FA00282ED177
:1004F000204601F02BFB80B2194A936823F0E07389
:10050000936006B010BD174BE4E7174BE2E7174BBB
:10051000E0E7174BDEE7174BDCE7174BDAE7174B43
:10052000D8E7174BD6E7174BD4E7174BD2E7174B53
:10053000D0E7174BCEE7174BCCE7174BCAE7174B63
:10054000C8E7174AC2E7174B00930723BFE700200D
:10055000D2E70020D5E700BF010000800200300490
:1005600000030450040060080800900C1000C01044
:100570002000F014400020198000501D000180214F
:100580000002B0250004002A0008302E001060325E
:10059000002090360040C03A0080F03E0000214329
:1005A000000052C7000084CB73B500F0B3FE041EF8
:1005B00033DB1B4E56F8240000282ED08423194D1F
:1005C0006343EB58DA69110609D5DA69120606D5D4
:1005D0001B681B0603D5144B01211B689847842315
:1005E0006343EB58DA6991060BD5DA69920608D5B0
:1005F0001B68980605D50C4B56F824001B68002193
:10060000984784235C432B59DA69110705D5DA69C9
:10061000120742BF9B8C9BB2019302B070BD00BF1A
:10062000DC030020500200204C0200200148FFF7AC
:10063000BBBF00BF008000400148FFF7B5BF00BF4F
:10064000004400400148FFF7AFBF00BF0038014041
:10065000002807DB044A4109012300F01F00834002
:1006600042F82130704700BF00E100E000280CDBB9
:100670004309064900F01F0020330122824041F85F
:100680002320BFF34F8FBFF36F8F704700E100E06F
:10069000034B19604168034B43F82120704700BFAA
:1006A0004C020020DC030020D0E9000330B4204CD1
:1006B000A04222D004F53844A04218D0A4F57444D6
:1006C000A04217D00024204684256B43194DEB58D7
:1006D000CAB11A68A1B942F020021A60164B00F1A3
:1006E00010029B6843F8224030BCFFF7B1BF134CA7
:1006F0002520E9E7124C2620E6E7124C4620E3E7E6
:1007000042F08002E9E71A6849B922F020021A6033
:100710001B6813F0800F09D130BCFFF7A7BF22F090
:1007200080021A601B6813F0200FF4E730BC70479A
:10073000008000405002002000ED00E04506000867
:10074000390600082D060008F8B54568184F8423BF
:1007500003FB057306469A68B2F5805F15D11B69E5
:10076000002B40F2FF1418BFFF24842303FB057302
:10077000A3F85C40304600F005FD0028FAD0842341
:100780005D437B59988C2040F8BD2AB91B69002B2A
:100790000CBFFF247F24E8E7B2F1805F05D11B691D
:1007A000002B0CBF7F243F24DFE70024DDE700BFE0
:1007B0005002002070B5466805460C46284600F0F9
:1007C000F1FC0028FAD084235E43034B9B59C4F309
:1007D00008041C8570BD00BF5002002008B5FFF75B
:1007E00055FE07EE900A9FED047AF8EE677A67EE01
:1007F000877A17EE900A08BD01088039384B5A698C
:10080000D0072DE9F0412BD59E6836489968364DC2
:100810009A68364C06EA0007B04308BF012001EA97
:10082000050108BF98602E4BA94208BF4FF48070A5
:1008300002EA040208BF9860A24204BF4FF480306D
:100840009860284B9F4205D0274B994202D0274BF6
:100850009A4205D1264B274A1B6810680121984708
:100860001F4BD9685A6989070BD0970709D55A6970
:1008700022F002025A611E4B1E4A1B6810680021BA
:100880009847174B99695A695B698E0709D5950591
:1008900007D51C0405D5164B164A1B6810680521A0
:1008A00098470F4CA16962696369480702D463697C
:1008B000BDE8F0815105FAD51A040AD463691B0416
:1008C000F6D50B4B0B4A1B681068BDE8F0410221BE
:1008D0001847084A064B10681B6807219847EDE740
:1008E000006400400300000400030008000003103F
:1008F000E8030020EC030020FFF780BFFFF77EBF76
:1009000030B591FAA1F391FAA1F1B3FA83F3046837
:100910005B000325B1FA81F105FA03F3490024EAEB
:1009200003038A401A43026030BD00001FB51D4B0F
:10093000072834D8DFE800F004121D33333333289E
:10094000DA6C42F00102DA64DB6C03F0010300931D
:10095000009B4FF0904005B05DF804FBDA6C124844
:1009600042F00202DA64DB6C03F002030193019BA4
:10097000F1E7DA6C0D4842F00402DA64DB6C03F054
:1009800004030293029BE6E7DA6C094842F0800216
:10099000DA64DB6C03F080030393039BDBE7054819
:1009A00005F0A4F8001002400004004800080048C8
:1009B000001C004887980008431C10B5044604D169
:1009C00006490748772204F055FE4FF4707100F095
:1009D00091FA04F00F040120A04010BDF098000827
:1009E000FB9800084B1C70B504460E46018218D0D7
:1009F000C1F30310FFF79AFF05463046FFF7DCFF0F
:100A0000238A084A656103F00F03206052F82330FF
:100A1000A36105F11003636005F118032835A36095
:100A2000E56070BD5CA90008B0F9100000F0F2BAF2
:100A30000A46D0E905010AB9FFF762BF0122FBE7C8
:100A400008B500F025FE002008BD000038B504F010
:100A5000E7FE4FF08043124912485C6A02680B8837
:100A60009B1A2344B3F5803F17D34FF47A75B3FB39
:100A7000F5F205FB123305E00132A3F57A73B3F505
:100A80007A7FF9D20460084C9BB20B802368134430
:100A9000236004F0DBFE206838BD0022EFE700BFD2
:100AA000F0030020F8030020F40300200048704702
:100AB00054A90008024BD869DA698242FBD1704719
:100AC000007C004008B504F0ABFE074B01221A7011
:100AD000064B00221A70064B0222C3F808219A60C6
:100AE000BDE8084004F0B2BE0C0400200B04002056
:100AF00000E100E010B504F093FE134B1A7842B900
:100B0000124A126811680907FCD5082151600122B8
:100B10001A700F4C23781BB105F0E2F80023237004
:100B20000C4A002313700C4A13700C4B0222C3F8BA
:100B30008820BFF34F8FBFF36F8FBDE81040C3F81D
:100B4000882104F083BE00BF0804002010040020A8
:100B5000000400200B0400200C04002000E100E051
:100B600070B5404B1C68A8B024B128B0BDE87040F7
:100B7000FFF7C0BF5022012521460DEB02001D608A
:100B800007F044FE4022214603A807F03FFE04235D
:100B900002934FF40073139302A84FF4402304957B
:100BA000209301F0A9FC10B12F4804F09FFF13A877
:100BB00002F002F908B12D48F7E72D4B2D4C9A6D44
:100BC00042F000429A659A6D02F000420192019A49
:100BD0009A6B42F000429A639A6B22F000429A6349
:100BE000A3F5CA33C4E90100C4E90300C4E908005D
:100BF000C4E90A00236084F836004FF48023E061E2
:100C000020634FF6FF762046C4E9056301F0F0FA51
:100C1000054608B11848C8E7184B194A9B68C3F83D
:100C20004421184A136A43F00103136223689A6847
:100C300042F001029A609A6842F008029A603146D6
:100C4000204601F031FB236808225A605D611A6872
:100C50001207FCD508225A600B4B01221A7028B0EB
:100C600070BD00BFFC0300200E9900082799000802
:100C700000100240100400204899000800ED00E038
:100C80007D0D0008000401400804002008B504F0B0
:100C9000C7FD064B1B6801225A60054B0222C3F8B0
:100CA0008821BDE8084004F0D1BD00BF1004002039
:100CB00000E100E070B5044604F0B2FDFFF7FAFE73
:100CC000264B05461C60264A02219160254E32784B
:100CD000F2B9611F4FF6F572914223490FD94FF6D1
:100CE000FA7290420BD906340122A4B20A701C6039
:100CF0001E4B01221A70BDE8704004F0A7BD00220F
:100D00000A701B68AB421A4B28BF01221A70EFE72A
:100D1000FFF7BCFF00235A1992B2A24208BF053464
:100D200003F1010308BFA4B2052BF4D1114BAC426F
:100D30001B6811D24FF6FA7295420DD84FF0FF3270
:100D40005A6100230C4C33702378002BD3D104F06C
:100D5000B1FF01232370CEE75C61F2E704040020B9
:100D600000E100E008040020090400200B0400203A
:100D70000A040020100400200004002070B504F0D4
:100D80004FFD2C4B2C4C1A7832B100221A7023687C
:100D900001225A6003F07CFB23681A68D50706D548
:100DA0009A68D00703D501225A6003F071FB2368CB
:100DB0001A68110724D59A68120721D508225A60AB
:100DC0001E4B1F4C01221A7023781BB104F088FFC0
:100DD000002323701B4C237893B11B4D1B492B78A8
:100DE00003F0FF06B3B1FFF765FE0B68063080B273
:100DF000984209D3FFF766FE00232B70002323706F
:100E0000BDE8704004F022BD0868063880B2FFF7E4
:100E100051FFF1E70E4D2B7843B1FFF74BFE0B6806
:100E2000984203D3FFF74EFE2E70E7E70868FFF7FE
:100E300041FFE3E70C040020100400200804002018
:100E4000000400200B0400200904002004040020FA
:100E50000A040020FFF74EBE7047704710B50E4CD5
:100E6000FFF7FBFF02F0B6FC00F029FDD4F890304C
:100E70009B0707D401F040FAD4F8903023F0180310
:100E8000C4F89030FFF76EFA02F0A4FCFFF7E4FF1D
:100E9000024B01221A6010BD0010024048040020DD
:100EA00030B591FAA1F391FAA1F1B3FA83F3846812
:100EB0005B000325B1FA81F105FA03F3490024EA46
:100EC00003038A401A43826030BD30B591FAA1F322
:100ED00091FAA1F1B3FA83F3C4685B000325B1FA78
:100EE00081F105FA03F3490024EA03038A401A4317
:100EF000C26030BDB0F1FF3F2DE9F84380460E4699
:100F00007FD000F00F02404BC0F3031053F8225083
:100F1000C1F3831901F00707FFF708FDB9F10F0FBF
:100F20000CBF03224A4629460446FFF7B9FF032FA8
:100F30005ED8DFE807F062642C02032395FAA5F27D
:100F4000B2FA82F221685200032000FA02F221EA8A
:100F5000020195FAA5F2B2FA82F252009340013FE3
:100F60000B43012F236005D8636832074CBF2B4326
:100F7000AB436360C6F30112012A02D0022A18BFF4
:100F8000002229462046BDE8F843FFF79EBF18F02F
:100F9000080FC6F3832217D02B0A93FAA3F1B1FAF4
:100FA00081F1406A93FAA3F389004FF00F0CB3FA72
:100FB00083F30CFA01F19B0020EA010102FA03F32A
:100FC0000B4363620223B9E795FAA5F3B3FA83F3FF
:100FD000016A9B000F2000FA03F321EA030195FA4E
:100FE000A5F3B3FA83F39B009A400A432262E9E730
:100FF00006490748D52204F03DFB00239EE7012364
:101000009CE7BDE8F88300BF5CA90008A69900082A
:10101000DEA3000838B5431C0D4634D000F00F02A3
:10102000194BC0F3031053F82240FFF77FFC94FAEA
:10103000A4F2B2FA82F252000168032393400B40FB
:1010400094FAA4F26AB1B2FA82F25200D340013BA0
:10105000012B06D8EB1E022B436894BF2343A34306
:101060004360013D042D0CD8DFE805F00309030BB4
:10107000090001222146BDE83840FFF726BF0222C1
:10108000F8E70022F6E738BD5CA900080FB407B501
:10109000064B04AA1B6852F8041BD868019204F09E
:1010A0000EF903B05DF804EB04B07047CC010020EA
:1010B00003682F4A934210B5044636D12D4B1A6C63
:1010C00042F480421A641A6C22F480421A641A6E46
:1010D00022F480421A66B4F9180040F2C331FFF7D7
:1010E00009FFB4F91A0040F2C331FFF703FF236A86
:1010F00023F40073B3F5807F05D1B4F9240040F2E6
:10110000C331FFF7F7FE236A23F48073B3F5007F42
:1011100005D1B4F9260040F2C331FFF7EBFE626857
:10112000154B002143F8221010BD144A93420DD1F3
:10113000104B9A6B42F400329A639A6B22F400329D
:101140009A639A6D22F400329A65C4E70C4A93427E
:10115000C1D1084BDA6B42F00102DA63DA6B22F09C
:101160000102DA63DA6D22F00102DA65B3E700BF4B
:101170000038014000100240DC0300200044004021
:1011800000800040436884225343054AD358DA69FB
:10119000120744BF08221A62D869C0F34010704792
:1011A00050020020436884225343034AD358D8692D
:1011B000C0F3C010704700BF5002002070B54668F1
:1011C000214A0568842373439C18D5508168616067
:1011D000C368A3600369E36043692361036AA36191
:1011E0000023C4E90833A4F85230E361A4F8503076
:1011F000A4F85A30A4F85830B0F91A3001331BD093
:10120000B0F91830581C0CBF04230C23842000FBB9
:10121000062253610D4B9D4209D142F6AA23994201
:1012200020460BD802F06BFA204602F08AFA2046DC
:10123000BDE8704002F035BA0823E7E702F070FA23
:10124000204602F08FFAF2E75002002000800040B2
:1012500070B502682B4B9A42A6B004460D468160D9
:1012600022D15022002112A807F0D0FA2023119396
:1012700042F6AA239D4222DD002311A81B9301F010
:101280009BFD2046FFF79AFF002839D04FF480637A
:1012900011A81B9301F090FD2046FFF78FFF78B354
:1012A00019482946FFF7F2FE2046FFF787FF38B3BB
:1012B0001648294626B0BDE87040FFF7E7BE144E39
:1012C000D6F8901011F002010BD1402201A807F0CE
:1012D0009DFA042300936846012302930A9301F0C8
:1012E0000BF9D6F890309B07C6D54FF4406311A890
:1012F0001B9301F061FD2046FFF760FF0028BBD182
:1013000026B070BD00800040AF990008FA9900082F
:1013100000100240094B98420BD0A3F57443984249
:1013200009D003F5705398420CBF02204FF0FF30F4
:101330007047002070470120704700BF003801400F
:101340002DE9FF470E4604464B493046154603F04B
:10135000CDF84A498246284603F0C8F8014650466F
:1013600003F0A0F844490746304603F0D5F8434956
:101370008146284603F0D0F8022E80460AD00F2D71
:1013800008D03D49022003F0B1F850450CD13C484B
:1013900004F0ACFB4FF0010A791C276007D13949F2
:1013A0003948412204F066F94FF0000AF4E7374B60
:1013B0009F4214D103F558431A6E42F480421A66D4
:1013C0001B6E03F480430193019B3846FFF7A2FF95
:1013D0000028606021DA2B492D48A022E2E72D4B3E
:1013E0009F420BD103F5E6339A6D42F400329A65C1
:1013F0009B6D03F400330293029BE6E7264B9F426A
:10140000E3D103F5C833DA6D42F00102DA65DB6D32
:1014100003F001030393039BD7E749463046FFF7E8
:1014200069FD01213046FFF7F5FD41462846FFF7EB
:1014300061FD28460121FFF7EDFD00234FF4E13265
:10144000C4E90223C4E9043323622683658320466A
:10145000FFF7B4FEBAF1000F0AD0104B104801227A
:101460001A6021464C2204B0BDE8F04707F059BA93
:1014700004B0BDE8F08700BFD8960008A896000821
:10148000249A0008A19A0008AE9A0008003801408A
:10149000CA9A0008004400400080004098040020E0
:1014A0004C0400200E4B186810F0010018BFD869DA
:1014B0000C4B1A681CBF80F04000C0F38010D107AD
:1014C00004D5DB6913F0400F08BF0120064B1A68F2
:1014D000D20704D5DB6913F0400F08BF0120704725
:1014E0000038014000440040008000404FF080423E
:1014F000516A536A5B1A8342FBD3704710B50024CC
:1015000086B01422214601A8009407F07FF96946AD
:1015100001A801F0ADFB0F230099019301A8CDE9CB
:1015200002440594049401F091FA10B1024804F0C9
:10153000DDFA06B010BD00BFDC9A000800B593B01C
:101540000021442201A807F061F9104B9A6D42F086
:1015500080529A659B6D03F08053009301A8009B15
:1015600001F02CFB1023019301210023B02201A8DC
:10157000CDE9071309920B9300F0BEFF10B10448A8
:1015800004F0B4FA13B05DF804FB00BF0010024091
:10159000049B000808B504F043F9074B186810F4E1
:1015A00080404FF0010118BF4FF4804000F0ACFEC6
:1015B000BDE8084004F04AB90070004073B5FFF779
:1015C00071FF002839D11E4C04F02AF900F0F6F81A
:1015D0001C4AA56D166815F0805506F4804608D1A2
:1015E000A36D43F08053A365A36D03F08053019373
:1015F000019B0EB100F0B8FE012000F0D5FE0EB147
:1016000000F0AAFE1DB9A36D23F08053A3650E4C14
:1016100000232360FFF792FFFFF770FFFEF7A2FEA3
:101620004FF4FA70FFF762FF00F0DEF80123236049
:1016300002B0BDE8704004F009B902B070BD00BF4F
:10164000001002400070004048040020014B186860
:1016500001F00CBDA0040020014B186801F006BD8C
:101660009C040020074A4FF0804313601A699107D9
:1016700007D5DA68920704D56FF002021A6103F009
:1016800063B97047B0040020004870479CA9000867
:1016900030B589B001A903A801F0EAFA01F06AFAAD
:1016A000204B01909A6D204C42F001029A659A6D90
:1016B00002F001020292029A9A6B42F001029A63CE
:1016C0009A6B22F001029A63069A4FF080432360DE
:1016D0004FF0FF33E360154BFAB9B0FBF3F3581E3C
:1016E0000025606010482561C4E90555A56001F03A
:1016F00083FD0F4B0F4A9B68C3F8B0200E4B4FF091
:1017000080521A600848294601F0B4FD2268D36867
:1017100023F00203D36009B030BD4000B0FBF3F00A
:101720000138DDE700100240B004002040420F0005
:1017300000ED00E06516000800E100E004480268E2
:10174000D36823F00203D360002101F093BD00BFF2
:10175000B00400204FF08043586A7047054B1B6867
:101760006FF0020258631A61DA6842F00202DA602E
:10177000704700BFB0040020064B1B686FF00202E8
:101780001A615A6942F002025A61DA6842F00202B2
:10179000DA607047B0040020034B1A68D36823F066
:1017A0000203D360704700BFB0040020024B1B68E7
:1017B0006FF002021A617047B0040020064B074A1E
:1017C0001B68596A11605A6B054B1A604FF08043D1
:1017D000DA68044B1A607047B0040020AC040020A3
:1017E000A8040020A4040020064B074A1B681268C6
:1017F0005A62064A12685A63054B1A684FF08043D2
:10180000DA607047B0040020AC040020A804002077
:10181000A4040020014B186800F086BCFC040020E2
:10182000014B586800F080BCFC040020014B986814
:1018300000F07ABCFC040020014BD86800F074BCB6
:10184000FC040020014B186900F06EBCFC04002071
:10185000014B586900F068BCFC040020014B9869FA
:1018600000F062BCFC040020014BD86900F05CBCB5
:10187000FC040020014B186A00F056BCFC04002058
:10188000014B586A00F050BCFC040020014B986AE0
:1018900000F04ABCFC040020014BD86A00F044BCB4
:1018A000FC040020014B186B00F03EBCFC0400203F
:1018B000014B586B00F038BCFC040020704710B599
:1018C000032000F0FBFB0F20FFF7BAF8044618B91D
:1018D000FFF7F4FF204610BD0124FBE730B5CC0D27
:1018E00004F004041430C1F30451035907258D405A
:1018F00023EA05038A401343035130BD8068C0F3D7
:10190000800070477047000037B5002301930446FC
:10191000002800F0BE80456D25B9FFF7F3FFA565EF
:1019200084F8505023689A68910041BF9A6822F069
:10193000204222F03F029A609A68D20040F18880EB
:101940009A68D50000F19B80626D42F010026265DA
:10195000A26D42F00102A26501211846FFF7CEFFF9
:10196000626D02F01002024340F08F80626D22F43B
:10197000817242F0020262659A68D0070AD4464A30
:101980009268D20706D445486568826822F47C12C2
:101990002A438260E568626B94F820002A43A568B8
:1019A0002A43657E012842EA453242EA004202BFEC
:1019B000606A00F1FF3042EA4042A06A20B1E56A65
:1019C00000F4707028430243DD6835482840104316
:1019D000D8601846FFF792FF9A6802F008020243A7
:1019E0001ED1D86894F83020257E520020F4804023
:1019F00042EA853220F002000243DA6094F838208F
:101A0000012A3ED1D4E90F2518692A436FF38A00D1
:101A10000243606C0243A06C024342F001021A616F
:101A20002269012A05BF186BE2691A6B02F1FF32C5
:101A300006BF20F00F00024322F00F021A63636D0D
:101A400023F0030343F001036365084603B030BD90
:101A50009A68144922F0104222F03F0242F080526C
:101A60009A60114A1268B2FBF1F2013252000192FF
:101A7000019A002A3FF464AF019A013AF7E7002186
:101A80006BE71A6922F00102C9E7636D43F01003A6
:101A900063650121D9E700BF000004500003045032
:101AA00007C0F0FF400D030008000020F8B54569AD
:101AB000082D04460E460AD00368DB68D90705D511
:101AC000436D43F0200343650120F8BD0425FEF774
:101AD000BDFF074623681A682A421DD0626D42F492
:101AE00000726265DA6812F4406F0FD1627E6AB9E3
:101AF0001A6810070AD5626D22F480726265626D01
:101B0000D1045EBF626D42F001026265082DDA68A1
:101B100017D11D600020D8E7721CDCD0FEF796FFBD
:101B2000C01BB04201D8002ED4D123681B682B40C3
:101B3000D0D1626D84F8503042F004026265032017
:101B4000C3E75204E6D40C221A60E3E70368186C7A
:101B500070470000F7B50023019390F85030012B37
:101B600005460E4600F090810468012380F850304D
:101B70002046FFF7C3FE002840F080814B68052B0C
:101B800009D8023B032B00F28480DFE803F0027BDC
:101B90007D7F0C23736072683368910901F00C013A
:101BA00004F1300702F01F0278584FF01F0CC3F306
:101BB000846393400CFA02F220EA020213437B5042
:101BC0002046FFF79BFEA36803F00803034320D1E0
:101BD000B26831682046FFF781FE30697769E168B5
:101BE0003368042804F1600255D052F820E0DFF891
:101BF000C4C2C1F3C10103F0F8430EEA0C0C490062
:101C000043EA0C0307FA01F10B4343F0004342F8A7
:101C10002030A2683368D70700F1C880F7689B4A74
:101C2000D4F8B01007F0180CC3F3120022FA0CF22B
:101C30001A4021EA00010A43C4F8B020944A9742AE
:101C400040F0B480002840F085809A0E013202F006
:101C50001F07092F4FF001014FEA826240F2958081
:101C600002F0F842B9401143002840F0B9809B0EC1
:101C7000013303F01F0303EB43031E3B1B0543F03B
:101C800000738EE0122385E7182383E74FF48073F7
:101C900080E706237EE7216E216EC3F31200C1F3B5
:101CA0008461002839D1C3F38463994202BF236E53
:101CB00023F000432366636E3368616EC3F3120042
:101CC000C1F3846100282FD1C3F38463994202BF1A
:101CD000636E23F000436366936833689168C3F3CF
:101CE0001200C1F3846130BBC3F38463994202BF25
:101CF000936823F000439360D3683368D168C3F3DB
:101D00001200C1F38461E8B9C3F38463994202BF4E
:101D1000D36823F00043D3607BE793FAA3F3002B4F
:101D2000C9D0B3FA83F3C0E793FAA3F3002BD3D05F
:101D3000B3FA83F3CAE793FAA3F3002BDCD0B3FA28
:101D400083F3D3E793FAA3F3002B3FF462AFB3FA24
:101D500083F3DBE793FAA3F131B1B1FA81F2571CB7
:101D600007F01F07092F30D893FAA3F293FAA3F7CD
:101D7000B2FA82F20132B7FA87F79206013702F01F
:101D8000F84207F01F07012101E002F0F842B940D4
:101D90001143A8B99B0E013303F01F0303EB430368
:101DA0001B05B26819432046FFF798FD3168394B8F
:101DB000194222D10020002385F8503003B0F0BD35
:101DC00093FAA3F3B3FA83F3E5E7B1FA81F70132AB
:101DD0009206013702F0F84207F01F07012141E7A0
:101DE00093FAA3F2B2FA82F2013202F01F02032345
:101DF0006FF01D0013FB020340E7274B274E9A6844
:101E0000B14202F0E0701AD11602D3D4244A9442AF
:101E1000D0D19A6822F0E072024342F400029A6044
:101E2000204B1A68204BB2FBF3F20C2302FB033366
:101E30000193019B002BBDD0019B013BF8E71B4E9A
:101E4000B1420CD1D101B5D4154A9442B2D19A68AD
:101E500022F0E072024342F080729A60AAE7144EC8
:101E6000B142A7D15202A5D40D4A9442A2D19A6898
:101E700022F0E072024342F48002EEE76A6D42F023
:101E800020026A65184696E7022097E7FFFF0700E1
:101E900000007F400000088000030450000052C78B
:101EA0000000045008000020400D0300000084CB17
:101EB0000100008000F0FF030268936870B50446DB
:101EC000D80701D5002070BD9168164B194209D082
:101ED000636D43F010036365A36D43F00103A365D5
:101EE0000120F0E79368104D2B4043F0010393600D
:101EF000FEF7ACFD064622681368DB07E2D4936860
:101F0000D9075FBF93682B4043F001039360FEF74E
:101F10009DFD801B0228EED923681B68DA07EAD4EE
:101F2000D6E700BF3F000080C0FFFF7F38B5044602
:101F30000068FFF7E3FC0546002836D194F85030DE
:101F4000012B32D0012384F850302046FFF7B4FF34
:101F500040BB636D23F4706323F0010343F480738B
:101F60006365636DDA0448BFA36D226852BFA06544
:101F700023F00603A3651C231360002384F850306C
:101F8000D3689B0141BF636D23F4405343F48053F6
:101F90006365936823F0004323F03F0343F0040399
:101FA000936038BD84F85050FBE70220F9E70268DF
:101FB00038B5936891680446C80701D4002038BD3D
:101FC0009907FBD4936803F00D03012B19D1936893
:101FD00023F0004323F03F0343F002039360032305
:101FE0001360FEF733FD054623689B68DB07E5D5E4
:101FF000FEF72CFD401B0228F6D923689B68DA0700
:10200000F2D5636D43F010036365A36D43F00103E4
:10201000A3650120D3E737B50023019390F8503032
:10202000012B04460D463CD0012380F85030FFF7C9
:10203000BEFF636D90BB23F4885323F00203226834
:1020400043F002036365936823F0404323F03F03AA
:1020500005F080452B4343F0004393609368002BC9
:1020600012DA019B01330193019BB3F5912FF5D354
:10207000636D23F0120343F010036365002384F8BB
:102080005030012003B030BD636D23F0030343F0F3
:1020900001036365002384F85030F3E743F0100335
:1020A000F7E70220EEE70368D3F8B4000840090B15
:1020B00001F0100100F07F10C84070470749CA685E
:1020C00022F4E0620302120403F4E063120C1343EF
:1020D00043F0BF6343F40033CB60704700ED00E092
:1020E00010B590F82520022A03D00422C2630120F3
:1020F00010BD0268836B116821F00E011160116838
:1021000021F001011160D0E91042012102F01C020E
:1021100001FA02F26260002280F8251080F8242083
:1021200003B198470020E3E7016C426C036870B488
:1021300002F01C020E681D680424944034420ED044
:1021400015F0040F0BD01A6892065EBF1A6822F0D1
:1021500004021A60036B4C6073B370BC184702240E
:102160009440344212D015F0020F0FD01A68950631
:1021700006D41A6822F00A021A60012380F825307A
:1021800000234C6080F82430C36AE5E708249440BB
:10219000344211D02C070FD51C6824F00E041C60AB
:1021A000012303FA02F24A60C36380F8253000235A
:1021B00080F82430436BCFE770BC70470A4B44F67D
:1021C00020621B68B3FBF2F34FF47A7210B55343ED
:1021D000046800202268013B08BF032031EA0202A4
:1021E00001D0002BF6D110BD080000207047000080
:1021F000F8B50446002850D090F8363003F0FF02BE
:102200001BB980F83520FFF7F1FF60682168A56AE7
:10221000022384F836300128CB6802D0B5F5000FD0
:1022200001D123F01E0362691D4F4FF6FF76B242C3
:1022300018BF23F46043A66818BF23F0C0031F40F3
:1022400040EA05033343266A3343666A33433B431C
:10225000E0B9E069266930430343B5F5000F17D0B4
:102260004FF6FF70824204D0A0690243E069024346
:1022700013430C4ACB609142E36A04BF226B1343C1
:102280000B62012384F836300020F8BD0128E4D128
:10229000D4E9030528430343E2E70120F5E700BF43
:1022A000FEF119FF007C0040022238B580F836208C
:1022B000D0E90052012A04460B4607D0826AB2F5E3
:1022C000000F02BFEA6822F46062EA602A69102106
:1022D00042F001022A6120466960AB61FFF76EFFA0
:1022E000032807D02B6943F004032B61012384F8F2
:1022F0003630002038BD0000024A136843F4807372
:1023000013607047007000400D4B10B55B690C46C0
:1023100028B99A0507D500F027F820B110BD9B0514
:1023200001D400F019F8074A1369012C23F00403C3
:10233000136101D130BFF1E740BF20BF20BFEDE7FF
:102340000070004000ED00E0024B186800F4C0602F
:10235000704700BF00700040024A136843F4804396
:1023600013607047007000400C4A136823F48043E8
:1023700013600B4B1B6832214B430A49B3FBF1F34B
:1023800001335169890500D533B9536913F4007FCE
:1023900014BF032000207047013BF2E700700040AB
:1023A0000800002040420F000B4A136823F0070387
:1023B00043F002031360094B1A69012842F004023A
:1023C0001A6105D130BF1A6922F004021A61704700
:1023D00040BF20BF20BFF6E70070004000ED00E0E6
:1023E00037B51E4DAB6DDA00044618D5FFF7ACFFCC
:1023F000B0F5007F23D1802C29D9A02C8CBF0224DA
:10240000012417490A6822F0070222430A6008687B
:1024100000F00700001B18BF012003B030BDAB6DFA
:1024200043F08053AB65AB6D03F080530193019B88
:10243000FFF78AFFAB6D23F08053AB65D8E7802CA4
:1024400007D808D0A4F170035C425C41D9E70024AE
:10245000D7E70324D5E70224D3E700BF00100240EA
:1024600000200240204B9A68D96812F00C0205D077
:102470000C2A2CD101F0030101292FD119681B4826
:10248000090755BFD3F894101968C1F30321C1F3AC
:10249000031150F8210032B3DA6802F00302022A75
:1024A0001ED01349032A08BF0846D968DA68C2F368
:1024B00006224243D868C0F34160C1F302110130E3
:1024C00001314000B2FBF1F2B2FBF0F07047042A98
:1024D00008D0082A064818BF002070470020DBE714
:1024E0000448E2E70348704700100240A4A900082E
:1024F00000127A000024F4002DE9F7430546002875
:1025000060D0954C0368A668E768DB0606F00C0609
:1025100007F0030776D51EB10C2E55D1012F53D1EC
:102520002368980702D5AB69002B4BD02368286A33
:10253000190756BFD4F8943023681B0903F0F00341
:10254000984229D9FFF74CFF00283BD1236843F07C
:102550000803236023682A6A23F0F00313432360EF
:102560006368EA6923F47F4343EA02236360FFF769
:1025700079FFA368794AC3F30313D35C03F01F0305
:10258000D840774B1860774B1868FEF759FA002847
:1025900038D003B0BDE8F083236843F0080323601C
:1025A000236823F0F003034323606368EA6923F49C
:1025B0007F4343EA02236360002ED8D1FFF710FF68
:1025C0000028D4D00120E4E7AB69002B3AD023687F
:1025D00043F001032360FEF739FA804623689A0727
:1025E00028D5236843F00803236023682A6A23F070
:1025F000F003134323606368EA6923F47F4343EAEB
:10260000022363602B68D8072DD42B6899076BD4FD
:102610002B68180700F1A8802B68590700F1CE80BD
:102620002B68980600F13781AB6A002B40F05D8182
:102630000020AEE7FEF70AFAA0EB08000228CDD989
:102640000320A6E7236823F001032360FEF7FEF9C9
:10265000804623689B07D5D5FEF7F8F9A0EB080064
:102660000228F6D9ECE7082E03D00C2E08D1032F50
:1026700006D123689A03C8D56B68002BC5D1A1E7A2
:102680006B68B3F5803F10D1236843F48033236037
:10269000FEF7DCF9804623689B03B6D4FEF7D6F933
:1026A000A0EB08006428F6D9CAE7B3F5A02F04D13F
:1026B000236843F480232360E6E7226822F4803213
:1026C0002260226822F480222260002BE0D1FEF7F3
:1026D000BDF980462368980397D5FEF7B7F9A0EBBC
:1026E00008006428F6D9ABE7042E03D00C2E10D1D5
:1026F000022F0ED12368590503D5EB68002B3FF458
:1027000061AF63682A6923F0F85343EA02636360A8
:102710007EE7EB687BB1236843F480732360FEF7A8
:1027200095F9074623685A05EBD4FEF78FF9C01BCD
:102730000228F7D984E7236823F480732360FEF727
:1027400085F9074623685B057FF562AFFEF77EF9E2
:10275000C01B0228F6D973E700100240DCA900086C
:1027600008000020040000206B699BB1D4F894306D
:1027700043F00103C4F89430FEF768F90746D4F833
:1027800094309A073FF548AFFEF760F9C01B022866
:10279000F5D955E7D4F8943023F00103C4F8943008
:1027A000FEF754F90746D4F894309B077FF534AF11
:1027B000FEF74CF9C01B0228F5D941E7A36DDF00F5
:1027C00029D4A36D43F08053A365A36D03F0805318
:1027D0000193019B4FF001089A4F3B68D8051DD526
:1027E000AB68012B2BD1D4F8903043F00103C4F82F
:1027F0009030FEF72BF941F288390746D4F8903033
:102800009A0742D5B8F1000F3FF40AAFA36D23F049
:102810008053A36504E74FF00008DDE73B6843F40D
:1028200080733B60FEF712F981463B68D905D7D427
:10283000FEF70CF9A0EB09000228F6D900E7052BFA
:1028400006D1D4F8903043F00403C4F89030CAE7BE
:10285000D4F8902022F00102C4F89020D4F89020FF
:1028600022F00402C4F89020002BC2D1FEF7EEF84B
:1028700041F288390746D4F890309B07C2D5FEF75D
:10288000E5F8C01B4845F6D9DAE6FEF7DFF8C01BCD
:102890004845B3D9D4E66B6A9BB1D4F8983043F07D
:1028A0000103C4F89830FEF7D1F80746D4F8983001
:1028B00099073FF5B9AEFEF7C9F8C01B0228F5D954
:1028C000BEE6D4F8983023F00103C4F89830FEF740
:1028D000BDF80746D4F898309A077FF5A5AEFEF705
:1028E000B5F8C01B0228F5D9AAE6022B40F0888073
:1028F000E368EA6A03F00301914222D1296B03F0F5
:1029000070020139B2EB011F1BD1696B03F4FE4267
:10291000B2EB012F15D1A96B03F07842B2EBC16F76
:102920000FD1EA6B520803F4C001013AB1EB425FE8
:1029300007D12A6C520803F0C063013AB3EB426F2F
:1029400045D00C2E3FF43EAE23685B013FF53AAE16
:10295000236823F080732360FEF778F80646236827
:102960009F012ED4E268384B1340EA6A13436A6B26
:1029700043EA0223AA6B43EAC2632A6B013A43EAA1
:102980000213EA6B5208013A43EA42532A6C520896
:10299000013A43EA4263E360236843F080732360B3
:1029A000E36843F08073E360FEF750F80546236860
:1029B0009E013FF53DAEFEF749F8401B0228F6D9CF
:1029C0003EE6FEF743F8801B0228C8D938E62368A4
:1029D00098013FF52DAE236843F080732360E368D0
:1029E00043F08073E360FEF731F8054623689901F0
:1029F0003FF51EAEFEF72AF8401B0228F6D91FE667
:102A00000C2E3FF4DFAD236823F08073236023682E
:102A10001A015EBFE36823F00303E360E36823F079
:102A2000887323F48033E360FEF710F805462368CB
:102A30009B017FF5FDADFEF709F8401B0228F6D992
:102A4000FEE500BF007000408C809D012DE9F04143
:102A50000D46044610B90120BDE8F081404A1368D4
:102A600003F007038B422AD32368D90732D42168A5
:102A70008A075BD43A4A136803F00703AB425DD878
:102A800011F0040F374D64D10B0706D5AB682269EE
:102A900023F4605343EAC203AB60FFF7E3FCAB6887
:102AA000314AC3F30313BDE8F041D35C03F01F03C5
:102AB000D8402E4B18602E4B1868FDF7C1BF136825
:102AC00023F007030B431360136803F007038B42E3
:102AD000C1D1C9E76268234E032A33681AD113F0C3
:102AE000007FB8D0B36823F003031343B360FDF74E
:102AF000ADFF41F288380746B368626803F00C0303
:102B0000B3EB820FB3D0FDF7A1FFC01B4045F3D953
:102B10000320A1E7022A02D113F4003FE1E712B932
:102B200013F0020FDDE713F4806FDAE70D4AA068B7
:102B3000936823F0F003034393609BE7136823F04B
:102B400007032B431360136803F00703AB4282D1E2
:102B500096E7AB68E26823F4E0631343AB6093E766
:102B60000020024000100240DCA9000808000020FC
:102B700004000020054B064A9B68C3F30223D35C84
:102B8000044A106803F01F03D84070470010024049
:102B9000D4A9000808000020054B064A9B68C3F32F
:102BA000C223D35C044A106803F01F03D840704767
:102BB00000100240D4A90008080000203F23036051
:102BC0002A4B1A68510356BF1A684FF4A02202F428
:102BD000803242601A6802F0010282615A68C2F3D0
:102BE0000722C2611A6802F0F00202621A6802F457
:102BF0008072C2605A68C2F304620261D3F8902006
:102C0000520756BFD3F89020052202F001028260DD
:102C1000D3F8942002F001024261D3F8982002F028
:102C2000010242621A6812F0807F0CBF0122022268
:102C30008262DA6802F00302C262DA68C2F3021248
:102C400001320263DA68C2F306224263DA68C2F331
:102C5000415201325200C263DA68C2F3416201326A
:102C600052000264DB68DB0E836370470010024091
:102C70000F2303600B4B9A6802F0030242609A68CC
:102C800002F0F00282609A6802F4E062C2609B681F
:102C9000DB0803F4E0630361034B1B6803F00703E5
:102CA0000B6070470010024000200240F8B5414C14
:102CB000E3689B0705460E46006828D0E36803F0EA
:102CC000030383423AD1002B38D0E3686A68C3F328
:102CD00002130133934231D1236823F080632360D0
:102CE000FDF7B4FE074623681A0130D4AA68120221
:102CF000A6B3012E23694BD1296923F4C0034908E7
:102D000023F4FE430139134343EA41532FE00228E1
:102D100010D0032814D0012810D123689F071CD598
:102D2000E3686A6823F07303013A034343EA02133A
:102D3000E360D1E7236813F4806FF1D101200CE048
:102D400023689903ECD4236813F4802FF5E7FDF78B
:102D50007DFEC01B0228C6D90320F8BD2169EB689F
:102D600042EAC36321F0784222F4FE421343236116
:102D7000236843F080632360FDF768FE06462368FE
:102D80001B0110D52369AA69134323610020E4E7DE
:102D9000696923F0C063490823F4FE4301391343F2
:102DA00043EA4163E3E7FDF751FE801B0228E6D9C1
:102DB000D2E700BF0010024003682DE9F7431E056B
:102DC000044640F1E780C16BB1F5000F00F0D480FC
:102DD000B1F5400F00F0D580002900F0DD8001261C
:102DE00023689D0333D59A4DAB6DD80000F1DC808C
:102DF000AB6D43F08053AB65AB6D03F08053019333
:102E0000019B0127DFF84C82D8F8003043F480732F
:102E1000C8F80030FDF71AFE8146D8F80030D90511
:102E200040F1C48076B9D5F89030226D13F4407328
:102E300040F0C580D5F89030226D23F440731343E1
:102E4000C5F890301FB1AB6D23F08053AB6523689C
:102E5000DF0708D57E49206AD1F8882022F00302D6
:102E60000243C1F888209D0708D57949606AD1F8E6
:102E7000882022F00C020243C1F88820980608D569
:102E80007349A06AD1F8882022F440620243C1F855
:102E90008820990508D56E49606BD1F8882022F406
:102EA00040220243C1F888205A0508D56849A06B22
:102EB000D1F8882022F440120243C1F888205F062E
:102EC00008D56349E06AD1F8882022F440520243D1
:102ED000C1F88820DD0508D55D49206BD1F8882030
:102EE00022F440320243C1F88820980410D5584A91
:102EF000216CD2F8883023F040630B43B1F1006FAE
:102F0000C2F8883040F08480D36843F48013D360E3
:102F10003746236859030FD54D4A616CD2F8883083
:102F200023F040630B43B1F1006FC2F888307CD1CD
:102F3000D36843F48013D3603D4623685A040BD50D
:102F40004349A26CD1F8883023F040531343B2F1C7
:102F5000805FC1F8883074D0284623681B0408D5E8
:102F60003B4AE16CD2F8883023F080430B43C2F82F
:102F7000883003B0BDE8F083354AD36843F480332A
:102F8000D360334AE16BD2F8883023F440030B431B
:102F9000C2F88830002623E70430FFF787FE064694
:102FA00000287FF41DAFECE700272BE7FDF74EFD6F
:102FB000A0EB090002287FF630AF032642E79342D8
:102FC0003FF438AFD5F89020D5F8903043F48033F3
:102FD000C5F89030D5F8903022F4407123F4803356
:102FE000D207C5F89030C5F890107FF523AFFDF7F4
:102FF0002DFD41F288398046D5F890309B073FF58A
:1030000019AFFDF723FDA0EB08004845F4D9D4E73C
:10301000B1F1806F7FF47CAF0121201DFFF746FEE8
:10302000074600283FF474AF73E7B1F1806F83D196
:103030000121201DFFF73AFE054600283FF47CAF32
:103040007BE70221201DFFF731FE002884D084E7B2
:103050000010024000700040024A136843F004036D
:10306000136070470010024070470000F0B503681D
:103070005D689A68560685B004464FEA9211C2F31D
:10308000801708D4D60706D56E0604D5C36C05B0E4
:10309000BDE8F0401847960704D5280602D5236DF1
:1030A0002046F4E741EA521102F4807001F0010178
:1030B00001434FEA521657D0AA0655D57FB194F86E
:1030C0005D20032A4FF0000148D0226E42F0040236
:1030D00022660091DA6800929A680092009AF107DD
:1030E0000CD5226E42F001022266002202929A68FA
:1030F00002921A6822F040021A60029A40B1226ECF
:1031000042F008022266002203929A680392039A10
:10311000226E4AB35A6822F0E0025A60012284F813
:103120005D20AA0722D05A68A06D22F003025A60DF
:1031300040B1104B8363FEF7D3FF18B1236E43F009
:1031400040032366606D78B10A4B8363FEF7C8FFC6
:1031500050B1236E43F04003236605E00191DA6825
:1031600001929B680193019B05B0F0BD2046FFF7DB
:103170007BFFF9E77931000808B5806A0023A0F8E1
:103180004630C387FFF770FF08BD7047184A0368D1
:1031900090420BD0B0F1804F08D002F5A05290427F
:1031A00009D1CA6823F44073134307E04A6823F047
:1031B00070031343F5E70F4A9042F2D04A6923F0B7
:1031C0008003134303608B68C3620B688362084B00
:1031D000984207D003F5A053984203D003F58063CB
:1031E000984201D10B69036301234361704700BF1B
:1031F000002C01400044014010B5044650B390F843
:103200003D3003F0FF021BB980F83C20FFF7BDFF03
:103210000223206884F83D30211DFFF7B7FF01230A
:1032200084F84830002084F83E3084F83F3084F839
:10323000403084F8413084F8423084F8433084F8D8
:10324000443084F8453084F8463084F8473084F8B8
:103250003D3010BD0120FCE7036A10B501F01F01ED
:1032600001248C4023EA04030362036A8A401A4360
:10327000026210BD082908B518D005D859B1042933
:1032800011D090F8433008E00C2912D01029F8D161
:1032900090F8423001E090F83E30013B18BF012326
:1032A00053B101203EE090F83F30F6E790F840300F
:1032B000F3E790F84130F0E708294FF0020335D0EA
:1032C00006D861B104292ED0022380F8433008E0EB
:1032D0000C292ED01029F7D180F8423001E080F877
:1032E0003E3000680122FFF7B7FF174A904206D030
:1032F000164B984203D003F58063984220D1436C6B
:10330000904243F40043436416D18268104B13404B
:10331000062B06D0B3F5803F03D0036843F00103CA
:103320000360002008BD80F83F30DAE780F84030C5
:10333000D7E780F84130D4E7044B9842EDD1E4E779
:10334000B0F1804FFAE700BF002C0140004001407F
:10335000070001007047000038B50446C0692169C4
:10336000A26823680A4361691D680A435F490243F2
:1033700029400A431A605A68E16822F440520A431D
:103380005A605B4AA16993421CBF226A11439A6842
:1033900022F430620A439A60564A934214D1564B43
:1033A000D3F8883003F00303022B00F09680032B40
:1033B00000F08D80012B00F08480B0F5004F00F00C
:1033C0009180FFF7E9FB11E04C4A934222D14A4B2E
:1033D000D3F8883003F00C03082B7ED016D8002BCE
:1033E0006FD1B0F5004F4FD0FFF7C4FB10B3626848
:1033F00000EB5203B3FBF2F39BB2A3F110014FF6C3
:10340000EF72914204D82268D36013E00C2B5ED097
:10341000012010E0364A9342FAD1374BD3F8883076
:1034200003F44063B3F5006F12D008D86BB9FFF70F
:10343000A1FB70B900200023C4E9193338BDB3F5EE
:10344000406FE5D14FF4004003E0FFF70BF8F0E7E1
:103450002B48626802EB42038342D9D8B0EB023FAB
:10346000D6D8510800238C464FF480751946E0FBEE
:1034700005C1604605F03EFF224BA0F540729A421E
:10348000C6D82368D860D5E7FFF774FB0028D1D0F1
:103490006268530803EB4003B3FBF2F39AB2A2F164
:1034A00010004FF6EF718842B2D823F00F03216865
:1034B0009BB2C2F342021343CB60BBE7FEF7D2FFDD
:1034C00094E7B0F5004FF9D1FEF7CCFFDEE7B0F599
:1034D000004FDDD04FF4004089E7B0F5004F0848B9
:1034E00085D1D5E7FFF758FBD0E700BFF369FFEFC1
:1034F00000800040003801400010024000440040BD
:103500000024F400FFFC0F00436ADA0710B506D56B
:103510000168846A4A6822F4003222434A609C07A8
:1035200006D50168C46A4A6822F4803222434A60A0
:10353000590706D50168046B4A6822F480222243A9
:103540004A601A0706D50168446B4A6822F40042B3
:1035500022434A60DC0606D50168846B8A6822F43F
:10356000805222438A60990606D50168C46B8A6836
:1035700022F4005222438A605A060FD50168046C77
:103580004A6822F480122243B4F5801F4A6005D1B4
:103590004A68446C22F4C00222434A601B0606D5E6
:1035A0000268816C536823F400230B43536010BD01
:1035B0002DE9F843DDF8209005460F46164698465B
:1035C0002A68D36937EA03030CBF01230023B342FF
:1035D00001D000201BE0B9F1FF3FF2D0FDF736FA31
:1035E0002C68A0EB08004845236802D8B9F1000F09
:1035F0000FD123F4D0732360A36823F00103A360E9
:103600002023AB67EB67002385F874300320BDE807
:10361000F8835A07D4D5E3691B05D1D54FF400636D
:103620002362236823F4D0732360A36823F001038B
:10363000A3602023AB67EB67C5F88030E3E773B581
:1036400004460026C0F88060FDF700FA23681B6876
:103650001A07054616D423681B685B070AD56FF066
:103660007E43009300222B464FF480012046FFF753
:103670009FFF98B920230020A36784F87400E367B4
:1036800020660CE06FF07E430093324603464FF411
:1036900000112046FFF78CFF0028DCD0032002B089
:1036A00070BD10B5044640B3836F1BB980F8743009
:1036B000FFF750FE22682423A367136823F0010359
:1036C00013602046FFF748FE012816D0636A13B145
:1036D0002046FFF719FF23685A6822F490425A6087
:1036E0009A6822F02A029A601A6842F00102204683
:1036F0001A60BDE81040FFF7A2BF012010BD90F88E
:103700007420012A1CBF01688A6803461FBF42F467
:10371000000200208A6083F8740008BF022070470E
:1037200090F87420012A1CBF01688A6803461FBFF5
:1037300022F4000200208A6083F8740008BF02208F
:10374000704790F87420012A1CBF01680A6803467C
:103750001FBF42F0020200200A6083F8740008BF15
:103760000220704790F87420012A1CBF01680A6883
:1037700003461FBF22F0020200200A6083F8740093
:1037800008BF0220704700000F4B104A9A60D3F820
:10379000882042F47002C3F888200D4B1A6800217B
:1037A00042F001021A6099601A6822F0A85222F4CD
:1037B00010221A604FF48052DA601A6822F48022D4
:1037C0001A609961704700BF00ED00E0000000083A
:1037D000001002402049214A0B681B0755BFD1F851
:1037E00094300B68C3F30323C3F3031352F823305D
:1037F0008A6802F00C02082A2CD00C2A0CD0184837
:10380000042A08BF03468A681649C2F303128A5C79
:10381000D340154A13607047C868CA6800F00300B7
:10382000C2F30212022802F101020FD003280FD0C6
:10383000B3FBF2F2CB68C868C3F306235343C0F36B
:10384000416201325200B3FBF2F3DCE7044BEFE7D5
:10385000064BEDE7054BD6E700100240A4A900088F
:103860000024F400DCA900080800002000127A00FF
:1038700038B50546044655F8043B9B6898472846EA
:10388000FCF7ACFF23680546DB68204698472846CE
:1038900038BD000070B50546064655F8044B54B9CE
:1038A00001F048FD346824B9284602F0C9FC2C46D2
:1038B000356001F049FDAC4204D00349034873224E
:1038C00001F0D8FE204670BD789B0008879B000859
:1038D00008B50348FFF7DEFFBDE8084002F0B8BCBA
:1038E0003405002008B50348FFF7D4FFBDE80840C1
:1038F00002F0CABC3405002038B5084B036004460A
:10390000C2660D46FFF7E4FF2946201DFCF734FD93
:103910002046FFF7E7FF204638BD00BFF4A90008A6
:1039200038B50546064B45F8043B0446FFF7D0FF83
:10393000284600F052FD2046FFF7D4FF204638BD50
:10394000F4A9000810B50446FFF7EAFF20467021ED
:1039500002F045FC204610BD036801221B690021CE
:103960001847036800221B69114618476FF01500BD
:10397000704780F834130020704780F85012002000
:10398000704790F83403704790F850027047002059
:103990007047012070476FF01C0070470A4B10B54C
:1039A000036048330446C0F8E430D0F8380310B15F
:1039B00003685B68984704F5407002F07FFC20467E
:1039C00000F008FC204610BD0CAA0008A0F1E4009D
:1039D000FFF7E4BF10B50446FFF7E0FF20464FF4C1
:1039E0004F7102F0FCFB204610BDA0F1E400FFF790
:1039F000F1BF10B4826801685410034601EB620005
:103A0000D20748BF0A595B685DF8044B48BFD358DA
:103A10001847012070476FF01C0070470020704766
:103A2000D0F8380308B520B100F0D7FA003818BF35
:103A3000012008BD30B5002587B0CDE9005502ABA7
:103A40000ECB044600F080FB84F8365307B030BD3F
:103A500030B5012387B00025CDE9005302AB0ECB72
:103A6000044600F071FB84F8355307B030BD10B543
:103A7000044601F0D5FED4E940239A420ABF94F8E7
:103A80000841002484F0010401F0E0FE204610BD4E
:103A900038B500F540750446284602F0D9FB04F518
:103AA000FA742046FFF7E3FF20B1284602F0ECFB52
:103AB000002038BD284602F0E7FB012002F091FB10
:103AC000284602F0C5FBECE7A0F1E400FFF7E0BFF9
:103AD00038B50546E830FFF7CAFF80F001042846F4
:103AE000E4B2FFF79DFF18B144F40054204638BDFE
:103AF00095F8FC32002BF9D144F01004F6E7A0F160
:103B0000E400FFF7E5BF000038B504460D4601F0BC
:103B100087FED4F800312A78E2540133B3F5807F70
:103B200005D90D490D484FF4AF7201F0A3FD94F88B
:103B3000082108BF0023C4F800312AB1C4F80431B9
:103B4000BDE8384001F082BED4F804219A4204BF97
:103B5000012384F80831F3E7F99B00080A9C000868
:103B600070B504460E4601F05BFED4E940239A424C
:103B700002D194F80851B5B1E35C3370D4F8043144
:103B80000133B3F5807F05D909490A484FF4AF7274
:103B900001F070FD4FF0000208BF1346C4F8043175
:103BA00084F80821012501F051FE284670BD00BFB0
:103BB000F99B00080A9C000810B586B004466846C8
:103BC00080E80C0006A800E90C00039110E907004A
:103BD000034BE36084E80700204606B010BD00BF39
:103BE000F3390008C36810B52BB9044904484FF4F1
:103BF000FD7201F03FFDBDE8104018476B9C0008C6
:103C0000769C000884B070B505AC064684E80E00CA
:103C100001F006FE94E80F0006F5497585E80F00EF
:103C2000D6F8303343B147F6FF713046FFF750FF07
:103C300010B12846FFF7D6FFBDE8704004B001F090
:103C400005BEA0F1E400FFF7DDBF08B5D0F83033C2
:103C50001BB100F54970FFF7C5FF08BD73B500F152
:103C6000E80504462846FFF702FF064694F8F031BF
:103C700073B9204600F046FA50B1204600F0DCFA55
:103C80000DF107018DF807002846FFF73DFFEDE72E
:103C900094F836332BB194F8F03113B12046FFF786
:103CA000C9FE4EB12846FFF7E2FE28B9204602B011
:103CB000BDE87040FFF7C9BF02B070BD70B50446E3
:103CC00088B001F0ADFD94F8BC30EBB194F8363318
:103CD000D3B92046FFF7C2FF94F8F061A6B90D4BA7
:103CE0000C4A04ADCDE90236214633462846FFF79B
:103CF00063FF079B0196009395E80E00204600F0B5
:103D000023FA012384F8363308B0BDE8704001F08F
:103D10009DBD00BF5D3C000838B5044600F0AEF91B
:103D20000F4B236000254833C4F8E430C4E97A55CA
:103D3000C4E9BD5584F8F05184F8FC5204F5407094
:103D400002F07EFA01232046C4F83053A4F834333D
:103D500084F83653C4F83853FFF7B0FF204638BD17
:103D60000CAA00082DE9F0470646894615469AB385
:103D700000F54077384602F06BFA06F1E808404655
:103D8000FFF775FE0446A0B9404609EB040AFFF7A9
:103D90006EFE30B9514640460134FFF7E1FEA542C0
:103DA000F2D13046FFF78AFF384602F06DFA20461E
:103DB00007E096F8343338462BB902F065FA6FF015
:103DC0000A00BDE8F08702F05FFA012002F009FA6C
:103DD000384602F03DFAD2E71046F2E7A0F1E400DF
:103DE000FFF7C0BF70B500F5407604460D4630467B
:103DF00002F02EFA2946204600F031FA2046FFF75D
:103E00005DFF304602F040FA002070BDA0F1E400F2
:103E1000FFF7E8BF73B5044690F8FC5200F5FA7658
:103E2000204600F080F958B10DF107013046FFF748
:103E300097FE28B19DF80710204600F000FAEFE742
:103E400094F835333BB104F5FA70FFF710FE10B16A
:103E50002046FFF7FDFD65B194F8FC324BB92046D2
:103E6000FFF7DEFD28B9204602B0BDE87040FFF73D
:103E7000ECBE02B070BDF8B505460C46164600F51E
:103E8000FA773846FFF7F3FD20B1A719BC4205D1F8
:103E90003046F8BD2846FFF7BDFFF2E714F8011BD6
:103EA000284600F0CCF9F1E770B5044688B001F07F
:103EB000B7FC94F8BD30FBB194F83533E3B9204634
:103EC000FFF7A8FF04F5FA70FFF7D1FDA0B90D4B7D
:103ED0000C4A04ADCDE90230214603462846FFF7DF
:103EE0006BFE0126079B0196009395E80E00204685
:103EF00000F02AF984F8356308B0BDE8704001F09D
:103F0000A5BC00BF153E00082DE9F04706460F4648
:103F10001546002A43D001F080FC044630B12A4601
:103F200039463046BDE8F047FFF7A5BF06F54078B3
:103F3000404602F08DF906F5FA7996F8FC3273B92D
:103F4000A7EB040AA5420AEB040719D996F8FC323C
:103F5000B3B939464846FFF7D7FD0134F2E796F882
:103F6000343393B1404602F08FF9012002F039F961
:103F7000404602F06DF996F8FC32002BF2D1DFE7F3
:103F80003046FFF791FFA542D7D8404602F07CF9B2
:103F9000002C14BF20466FF00A00BDE8F0871046E1
:103FA000FBE7A0F1E400FFF7AFBF70B500F5407686
:103FB00004460D46304602F04BF92946204600F0F3
:103FC00099F92046FFF770FF304602F05DF90020B6
:103FD00070BDA0F1E400FFF7E8BF83681A6843688A
:103FE0001A4214BF0120002070477047426810B485
:103FF0008AB1D0E9033404F0010123B959B1611049
:104000005158CB5801E00029F9D1816802EB6400D6
:104010005DF8044B18475DF8044B704770B50446D3
:1040200000F14C05D0F8C410284600F097FCD4F8F5
:10403000D820A2B1D4F8C8301BB9D4F8CC30D807F6
:104040000DD5D4F8E010D4F8DC304E1004EB61004C
:10405000C90744BFA159CB5894F8D0109847D4F859
:10406000B8102846FDF7F4F8224628460249BDE874
:104070007040FCF70DBB00BF4D420008F8B51E4B69
:1040800003601E4B436000251D4B856017464C2284
:1040900004460E46C0E90555C0E90755C36085844E
:1040A00045634564A0F8485029460061104404F077
:1040B000ADFBC4E92D57C4F8A45040F20113A4F895
:1040C000BC30B388A4F8BE30B389A4F8C0304FF632
:1040D000FF732046C4E93165C4E93655C4F8CC50B5
:1040E00084F8D050A4F8D230A4F8D430C4F8E0500A
:1040F000FFF794FF2046F8BDA4AA00081D40000861
:10410000ED3F000838B50546044655F84C3B1B68A2
:1041100098472846FDF736F8236805465B68204631
:104120009847284638BD38B50546044655F84C3BF7
:104130001B6898472846FDF735F8236805465B68F5
:1041400020469847284638BD84B02DE9F04709AE8F
:1041500086E80E0003689DF834701B680546984792
:1041600095F8BC303C0103B18FB195F8BD300BB16F
:10417000012F0CD096E80F002C44983484E80F00EF
:104180002B682846BDE8F0475B6804B0184704F187
:10419000980801F045FBA8440C9AD8F80C3005F1BA
:1041A0004C0982B10BB901F085FD96E80F002C4453
:1041B000983484E80F00012239464846FCF774FA27
:1041C00001F044FBDCE70BB101F08AFD0022C8F8E6
:1041D0000C20F1E770B5124B86B000260360CDE9E4
:1041E000006602AD95E80E000446FFF7ADFF01231F
:1041F000CDE90063204695E80E00FFF7A5FF94F88F
:10420000BC3013B994F8BD301BB104F14C00FCF77D
:104210004FFF206A08B101F05FF8204606B070BD7C
:10422000A4AA000810B50446FFF7D4FF2046E421F5
:1042300001F0D5FF204610BD4C30FCF785BA10B513
:104240004C300C46FCF7B6FA204610BD00EB0110CE
:10425000983008B5C3680BB1FFF7C4FC08BD03680C
:1042600070B504461B680D46984794F8BC30AB42C5
:1042700017D0E5B901F0D4FA2A46294604F14C00DA
:10428000FCF712FAD4F8A4308BBB01F0DFFA84F803
:10429000BC5035B994F8BD301BB904F14C00FCF7A3
:1042A00007FF236820465B68BDE87040184794F814
:1042B000BD304BB9A2686368511004EB6200D207AD
:1042C00044BF6258D358984701F0AAFAD4F8A430F2
:1042D000002BDAD004F19800FFF784FC01F0EAFC2F
:1042E0000122002104F14C00FCF7DEF9CDE701F0DA
:1042F000F7FCCAE7036870B504461B680D4698478B
:1043000094F8BD30AB4217D0E5B901F089FA2A46DE
:10431000012104F14C00FCF7C7F9D4F8B4308BBB91
:1043200001F094FA84F8BD5035B994F8BC301BB94B
:1043300004F14C00FCF7BCFE236820465B68BDE836
:104340007040184794F8BC304BB9A26863685110AC
:1043500004EB6200D20744BF6258D358984701F07B
:104360005FFAD4F8B430002BDAD004F1A800FFF7DC
:1043700039FC01F09FFC0122114604F14C00FCF7CE
:1043800093F9CDE701F0ACFCCAE703681B68184756
:1043900010B50446074B236000220023C4E9022322
:1043A00000230846A161C4E90433034900F048FA38
:1043B000204610BDBCAA00088B43000807B500903A
:1043C00000F10801806900F078FA03B05DF804FBA1
:1043D00000F10801806900F08ABA7047EFF310839A
:1043E00072B6054A117831B90449DB4303F0010381
:1043F0000B700123137070475C0500205D050020E1
:1044000008B5EFF31083DB4313F0010304D0064932
:104410000648362201F02EF9054A1370054B1B7829
:1044200003B162B608BD00BFC29C0008DE9C000854
:104430005C0500205D050020014B1878704700BF27
:104440005C050020F8B50F46044615461E46FCF7ED
:10445000C9FA01370FD023685EB1A2681360204605
:104460000121FCF7E5FA29462046BDE8F840FCF7B3
:10447000DBBAE268F2E7F8BD13460022FFF7E2BFBD
:104480000022FFF7F9BF000000487047C0AA0008EB
:10449000024B1B680BB10248184770470C00002004
:1044A000C0AA000807B502468A4208460AD0531C33
:1044B00008D0013005D0002304490548009301F0DD
:1044C00043FB104603B05DF804FB00BFF89C0008F6
:1044D00030010180B1F900305A1C01D118467047F3
:1044E000834201D1486870470C31F3E7421C13B591
:1044F00004460AD0FFF7EEFF431C06D1002304490F
:1045000004480093224601F01FFB02B010BD00BF1B
:10451000099D000830010180B1F900305A1C01D119
:1045200018467047834201D1886870470C31F3E721
:10453000F8B5446894F832608EBB03685B689847AE
:10454000226A82422BD023692062821A1A40A36811
:10455000A2FB03C194F93420CAB1606A10EB0C05C8
:1045600041F10001002A1BDBC2F12000A2F120036F
:1045700025FA02FC01FA00F021FA03F34CEA000CE0
:104580004CEA030CD1400CFA02F2AA1A6262D4E996
:104590000A3213EB0C0341EB0202C4E90A32F8BD04
:1045A000E76833463A46284604F0A4FE844607FBF3
:1045B00010506062EBE7824206D98A420BD98842EA
:1045C00094BF002001207047884206D98A428CBFE0
:1045D0000020012070470120704700207047000034
:1045E0002DE9F0414668336B23F07F4828F0FF083F
:1045F0000546B8F1000F5CD1FFF79AFF7368002BF6
:1046000059D0D3E90003D6E90A1281429A4104D372
:104610002B68BDE8F0415B6918476C68D4E90A1261
:10462000401A63EB020CD4E90572E369824273EB32
:104630000C031FD3E368A3FB000103FB0C1194F9E7
:104640003330A3B1A26802F1FF3C1CEB000041F142
:104650000001002B1BDBC3F1200CA3F12002D8408A
:1046600001FA0CFC40EA0C0021FA02F210438742E6
:1046700028BF0746236A1F4423691F40336ABB4291
:1046800009D11249124840F2C91200F0F3FF434623
:1046900004F030FEEBE72B6838461B6998472B681F
:1046A0005B6898473A460146306AFFF784FF002866
:1046B000AED1BDE8F0817369306A326918442B6865
:1046C0001040BDE8F0411B69184700BF699D000814
:1046D0007B9D00084368F7B593F830200546002A13
:1046E0007ED193F83230002B7AD103681B6898474B
:1046F0002B68DB69984703682BB93A493A4800931D
:104700001A4601F021FA394A1F461446B7FBF2F265
:1047100004FB12722746002AF7D16E683349B1FBB9
:10472000F4F11F22B1600127013A03D307FA02FC1A
:104730006145F9D186F83320B3FBF4F2B2F1004FB2
:10474000F2604FF01F0306D00124013B03D304FAAB
:1047500003F7BA42F9D186F834304068071F1C2F9E
:1047600005D900232249234800931A46C9E7202887
:104770001CBF012383404FF0070404FA07F414BF61
:1047800003F1FF334FF0FF3333617461E017A4FB93
:104790000143002701FB0031531E47F1FF3CE018A5
:1047A00041EB0C013B4604F0A5FD2B68C6E9060170
:1047B000C6E900775B6898476B6830620021012288
:1047C0000020C3E90A015F6228461A8683F8327026
:1047D000FFF7AEFE284603B0BDE8F040FFF700BF8C
:1047E00003B0F0BD9F9D00080E01048040420F0001
:1047F000B89D000805010480F3B44568069C8C60F0
:10480000C1E900236C68002734B9CC607FB96960C6
:1048100002B0F0BCFFF7E4BE666801962668B242BB
:10482000019E73EB0606F0D32746E468ECE7F960D7
:10483000D5E90A4194429941EAD202B0F0BC7047EE
:1048400038B505460C46FFF745FF00F0E9FF6B68F9
:104850001C60BDE8384000F0F9BF70B5054600F0B7
:10486000DFFFD5E90034DB68984794F832301BB19C
:10487000BDE8704000F0EABF012384F8313063687E
:10488000A3B12846FFF754FE6368D4E90A62D3E96E
:10489000000186428A4109D36A68DB685268636016
:1048A0002368002BEBD090689847E8E7002384F852
:1048B00031302846FFF794FEDAE72DE9F34104464C
:1048C0000D4617461E46DDF8208000F0A9FF204661
:1048D000FFF72EFECDF800803A46334629462046A3
:1048E000FFF78AFF02B0BDE8F04100F0AFBF38B576
:1048F00005460C4600F094FF6A685368A34209D14C
:10490000DB6853602846FFF76BFEBDE8384000F0D7
:104910009DBF1346002BF8D0DA68A242F9D1E268B5
:10492000DA60F2E738B50446FFF7D4FE00F078FF0E
:104930002046FFF7FDFD6368D3E90A4500F086FFD6
:104940002046294638BD7047024B1B680BB1024810
:104950001847704710000020ECAA0008B1F90C209D
:10496000B1F90410FCF7ECBC08B5BFF35F8F1C4B2A
:10497000D3F8902012F47C4FC2F3072104D11949D7
:1049800019483B2200F076FE0022C3F8942010461E
:104990008A421FD11022C3F89C20144AC3F8A020D9
:1049A0001322C3F89C20124AC3F8A0201122C3F896
:1049B0009C20104AC3F8A0200F4AC3F89C200F4A3D
:1049C000C3F8A0200722C3F89420BFF34F8FBFF392
:1049D0006F8F08BDC3F89820C3F8A0000132D7E755
:1049E00000ED00E0389E0008479E000839F00206FE
:1049F000390702133FF50B13120000803900021330
:104A0000102300F007B8202300F004B8302300F092
:104A100001B840239C46F0B404AE7546E80801D3C3
:104A2000EFF309860E4F0FCE0FC70FBC0FC74046DE
:104A3000494652465B460FC71DCE3100A60A00D339
:104A400004316E0900D248311FC7EFF3098069466F
:104A5000EFF3148663C76046014900F079F800BFA0
:104A6000D0050020F0B52C4E2C4F85B000243546E3
:104A7000214656F8042B3846013400F0B5FE0D2CC3
:104A8000F6D1AB6C02936B6C01932B6C244C0093AE
:104A9000D5E90E23696B234800F0A6FE2168224861
:104AA00000F0A2FEE16AA26AA36AA06A266BE76B25
:104AB000000CCDE901670090C3F307231B48D2B275
:104AC00000F092FEA36A1E0603D5616B184800F041
:104AD0008BFEA36A180403D5A16B164800F084FE70
:104AE000EB6C190712D5144800F07EFE2B6DDA0727
:104AF0000FD5124800F078FEEB6C5B074CBF1048F6
:104B0000104805B0BDE8F04000F06EBE0E4800F061
:104B10006BFE0E48EEE700BFD0050020549E000853
:104B200000ED00E0629E0008B19E0008BF9E0008F4
:104B30000E9F00081C9F00082A9F0008399F00084C
:104B4000699F0008759F0008599F0008469F00084C
:104B500007B504460D461A48012100F0BAFD68BBAE
:104B6000184800F041FE302C19D0402C1CD0202CCD
:104B70001FD11548154C00F037FE154800F034FEE3
:104B8000FFF770FF134800F02FFE0D4B00221A7044
:104B90000023114900932A46204600F0D5FF0F4814
:104BA0000F4C00F021FEE8E70E480F4C00F01CFE11
:104BB000E3E70E480E4C00F017FEDEE70024E7E7BF
:104BC0009D060020819F0008AA9F00083E01FF80EB
:104BD000D79F0008E29F000801A00008B99F0008C5
:104BE0003F01FF80C29F00084001FF80CD9F000869
:104BF0003D01FF8070B505461846136814466FF0F6
:104C0000004293420E46049905D229B103F0CCFC30
:104C1000431C05D1206070BD15B1B34238BFE854C4
:104C2000236801332360F6E72DE9F04F8DB09146FC
:104C300018229DF868309DF860A0029307468846C8
:104C40000DEB02000021DDE9164603F0DFFD029BBB
:104C5000002B0CBF20233023BAF1010F049325D180
:104C6000002E54DA644266EB4606D34606AB039345
:104C7000AAF10203DBB200250593059B012B49D85D
:104C8000BAF1020F04F00F030CBF374A374A240968
:104C9000D25C44EA06743609039B03F8012B0393A4
:104CA00054EA060305F10105E7D10CE0AAF104037B
:104CB000D3F1000B4BEB030B54EA0603D6D13023A0
:104CC0008DF818300125BBF1000F48D0029B3BB195
:104CD0001B9B00934A462D2341463846FFF78AFF27
:104CE000199B01359D4205DA199BAB421DDCBBF1D6
:104CF000000F0AD0029B3BB91B9B00934A462D2311
:104D000041463846FFF776FF013D06AC22E04FF002
:104D1000000BD1E7204631460A22002304F0EAFACC
:104D2000303204460E46D2B2B6E71B9B00934A4689
:104D3000049B41463846FFF75DFF199B013B1993E1
:104D4000D2E71B9B0093013D4A46635D41463846CE
:104D5000FFF750FF002DF4D10DB0BDE8F08F199B87
:104D60009D42C1DBD1E700BF57AB000847AB00084D
:104D70002DE9F04F95B01C46002383460D46139352
:104D80009246C2B1994216DB0CBF012301F1FF35F7
:104D90000D934FF000081AF8083083B9139BBBF14C
:104DA000000F08D00D9A32B9AB428ABF0D9B0BF8A9
:104DB00003200BF80530139815B0BDE8F08F252BB4
:104DC00040F0528208F101031AF80320203AD2B2CF
:104DD0000D2A07D842F6090121FA02F2D20748BF8C
:104DE00008F102031AF803202A2A1DD14FF0000906
:104DF00001330434CDF81C901AF803102E290AEB65
:104E0000030240F0E68051782A292AD000260A279A
:104E10005378303BD9B2092902F1010040F2D58024
:104E2000CAF1010313441FE0302A13D101331AF8E9
:104E30000320302AFAD00122079253444FF0000990
:104E4000194611F8012B303AD0B2092804D9A3EB46
:104E50000A03D1E70022EFE70A2303FB09290B46E7
:104E6000EEE754F8046B02331AF80320682A40F086
:104E7000B3800AEB03025278682A00F0BD801C223E
:104E8000AF498A5C02F00F01CB180B931AF803703C
:104E9000692F00F2ED80572F00F2BF80A7F1460383
:104EA000012B00F2EA80073424F00704B4EC027B03
:104EB00051EC170B8DED0E7B04F034FA0A9106903D
:104EC000099103F04FFF02460B46DDE90E0103F0A6
:104ED000BFFD0B460246CDE910236FF000439E4212
:104EE00000F02C81002E00F05481012200230C924E
:104EF00008930A229E4200F327810C98089903F038
:104F000031FFDDE9102303F05BFF002207468846EE
:104F10000023DDE90E0104F0C5F91090002800F02F
:104F20001F8143463A468749002003F091FD04F073
:104F3000F9F90C9B9842089B88469941074608DB83
:104F4000069B013B06930A9B63F10003099300272C
:104F5000B8469DED0E7B731C8DED107BA9EB03090C
:104F600029EAE979069B099A134340F02081DDE99B
:104F700010010022002304F095F9002800F01781A9
:104F80001E9B0593079BCDE9039304230293002204
:104F90000023CDE9002313AA29465846FFF744FE13
:104FA000002E00F030811E9B009313AA2E23294669
:104FB0005846FFF71FFE1E9B05930123CDE90363AF
:104FC0000023CDE9007802939CE007FB06360246F9
:104FD0001EE76FF0004647E76C2A06D10AEB030292
:104FE00052786C2A0AD020224AE74C3AD2B22E2AB2
:104FF0007FF646AF002245E7722243E7822241E76F
:10500000082B3AD8DFE813F0140139003900030106
:1050100039006A00390039006A00A7F15803112BE2
:105020002BD801A151F823F0DD5000087B50000877
:105030007B5000087B5000087B5000087B50000824
:105040007B5000087B5000087B5000087B50000814
:105050007B500008F5510008975000087B5000086D
:10506000A74E0008A74E00087B5000089750000884
:10507000A7F17003D9B20829C2D91E9B009313AAC5
:10508000252329465846FFF7B5FD0B9B252F18BF52
:1050900043460B93B7E0822A10D1073424F007036C
:1050A0001C465B6854F8082B1E99059107990092DD
:1050B000CDE9039101210291019323E0112A54F8D3
:1050C000043B07D0722A15BF1A465AB2D31743F3CE
:1050D000C013E9E71AB243F3C033E5E7822A17D1D8
:1050E000073424F007021446526854F8083B1E990E
:1050F00005910799752FCDE9039119D10021CDE9CB
:105100000032029113AA29465846FFF78DFD7AE036
:10511000512A54F8043B09D0722A03D0112A03D033
:105120000022E4E7DBB2FBE79BB2F9E7DA17DEE740
:10513000582F01D10321E2E70221E0E70626D4E659
:1051400018AB00080000E03F0C980899A0FB027023
:10515000089008980C975143014408910133C9E61F
:10516000464B00223846414603F074FC04F0DAF85E
:105170000C9B9842089B884699410746FFF6E9AE8A
:10518000069B109F013306930A9B43F1000309938A
:10519000DEE63A4B002204F0A3F8A0B1069B0133EF
:1051A00006930A9B43F1000309933746B0461E9BC2
:1051B0000593079BCDE9039301230293069B00937C
:1051C000099B0193E7E6DDE910012D4B002204F075
:1051D00069F860B1069B5F1E0A9B63F1000857EAFD
:1051E00008033FF4CDAE0697CDF82480DDE73746BF
:1051F000B046B7E61E9A14F8043B0092294613AA5B
:105200005846FFF7F7FC0B9B03F10108C3E554F880
:10521000047B3E443B78002BF5D0B742F3D01E9A76
:105220000092294613AA5846FFF7E4FC0137F1E73C
:105230001E9B54F8046B009313AA3023294658464A
:10524000FFF7D8FC1E9B009313AA782329465846E3
:10525000FFF7D0FC1E9B05930023CDE90333032306
:1052600002930096F31727E71E9A0092294613AA85
:105270005846FFF7BFFCCDF82C80C4E70000E03FA4
:105280000000E0BF0FB41FB50849096806AB896884
:1052900053F8042B009100206FF000410393FFF7B7
:1052A00067FD05B05DF804EB04B07047CC01002049
:1052B00013B500240094FFF75BFD02B010BD07B5E5
:1052C000134600900A4600206FF00041FFF750FDA2
:1052D00003B05DF804FB0000024B1B6803B11847E4
:1052E000704700BF2406002010B5044600F098FA6D
:1052F000204610BD10B5044600F0A8FA204610BDA7
:10530000036870B51B690122002104469847051EF9
:105310000DDB236802221B69002120469847236881
:10532000064629461B6900222046984735462846EE
:1053300070BD0000034B186818B14FF0FF3101F049
:105340005DBF704794120020024B186808B101F04D
:105350006DBF70479412002008B5024902488E22A2
:1053600000F088F956A0000863A0000810B50446B4
:105370000846FFF7D7FAC4E90001204610BD000037
:1053800010B50446FFF704F820460A4B40F8203BCE
:10539000A169FFF7EBFFD4E90823C4E90A2300223F
:1053A0000023C4E90C230023C4E90E3384F8403001
:1053B000204610BD70AB00084FF0FF30704738B585
:1053C00090F83F5004460DB1FFF7C6FFFFF700F815
:1053D00094F84030A5872BB184F84050BDE83840A0
:1053E00000F07EBC38BD000008B50121383000F067
:1053F00067F918B1024B4FF080625A6008BD00BFD8
:1054000000ED00E010B50446FEF7E2FF002384F84B
:105410003F30024B4FF000725A6010BD00ED00E0CB
:1054200010B5044601F1300000F05CF9C4E9000158
:10543000204610BDD0E90C32013342F10002C0E930
:105440000C32D0E90A3213F57A7342F10002C0E956
:105450000A327047D0E90A2312F57A7243F1000349
:10546000FEF7ACBF08B5012380F83F30836B1BB15A
:10547000034B4FF080625A60FFF7ECFF08BD00BF9E
:1054800000ED00E090F83C3010B504464BB100232D
:1054900080F83C3090F83E3013B9012380F83D305D
:1054A00010BD90F83F30002BFAD0836B013383633B
:1054B000044B4FF080625A60FFF7BCFF2046FFF7B5
:1054C000C9FFEDE700ED00E037B50D4604468969F8
:1054D0006846FFF74BFFD5E90A3200980199C01AD8
:1054E00061EB0201B0F57A7F71F1000306D2002270
:1054F0000023C4E90023204603B030BDB0F5FA6FA5
:1055000071F1000301D20122F2E700294FF47A720F
:105510004FF00003D8BF002103F0ECFEC4E9000106
:10552000E9E7000091F83F30F7B505460C4613B99E
:1055300091F83C6026B112491248E52200F09AF831
:105540006846FFF7C1FFDDE900304FF47A71A3FB35
:10555000017201FB0022A663D4E90A16C91942EBC5
:105560000602C4E90A12D4E90C125B1842EB0002ED
:105570002846C4E90C32C5E9003203B0F0BD00BFD3
:1055800056A000086DA000082DE9F743994690F851
:105590003F3004461746154623B132493248582257
:1055A00000F068F890F83C3063B901466846FFF7B0
:1055B000B9FF009BBB42019B73EB090305D3012399
:1055C00084F83D3003B0BDE8F08321466846FFF71C
:1055D00027FF009BB7EB03084FF47A73A5FB035634
:1055E00003FB0966D4E90832019F69EB0707ED1850
:1055F00046EB020694F840200123A38742B9A26932
:10560000126892F820203ABB84F8403000F052FB38
:10561000B8F1050F77F1000794F840300DD2002360
:1056200084F83E3094F8403023B9012384F84030A8
:1056300000F040FB2A46334608E0002BEFD101235F
:10564000B5F57A6284F83E3066F10003204603B077
:10565000BDE8F043FEF7B2BEB8F1050F77F10007E1
:10566000DDD3ECE756A0000863A0000802F094BD6B
:1056700002F01EBD07B50B4600920146002201480C
:1056800000F062FA4401FF8003460122D3E84F0F85
:10569000C3E8412FC0B20029F8D17047D0E85F3F7E
:1056A0005B18C0E8523F002AF8D198B27047D0E8A2
:1056B0005F3F5B1AC0E8523F002AF8D198B27047AA
:1056C000034653E8000F401A43E80002002AF8D1CD
:1056D00070470346D3E84F0FC3E8421FC0B2002A09
:1056E000F8D1704738B5044600F09AF8D4E900457F
:1056F00000F0ACF82046294638BD000000B589B05E
:1057000000F08EF81C22002101A803F07FF813217D
:1057100001A8FEF7B5FE104E104D0424039B019A1C
:105720001A60304600F05FFD049B019A1A60304613
:1057300000F059FD013CF1D10424039B019A1A6049
:10574000284600F050FD049B019A1A60284600F09C
:105750004AFD013CF1D1E0E7F0490200801A060061
:1057600073B5002201460446022000F0C3FB0D265B
:1057700000F056F80022254614F8013B23B902B088
:10578000BDE8704000F062B80A2B09D10D2A07D09D
:1057900001220DF1070102208DF8076000F0AAFB3D
:1057A00001222946022000F0A5FB14F8012CE2E7B3
:1057B00000B5A3B002460B4601A88421FFF778FD8F
:1057C000832806D9074B1A681B79CDF883208DF8FA
:1057D0008730002802DD01A8FFF7C2FF23B05DF883
:1057E00004FB00BF8AA000080FB407B504A951F854
:1057F000040B0191FFF7DCFF03B05DF804EB04B08C
:105800007047EFF31080C04300F001007047EFF3E2
:105810000580003818BF01207047FEF70DBE00005C
:1058200008B5FEF7DBFD064A1368591C04D105498B
:1058300005483F22FFF71EFF0133136008BD00BF7C
:1058400028060020D4A00008E4A00008044A136839
:1058500023B1013B13600BB9FEF7D2BD704700BF07
:105860002806002008B50B48FFF70EFF28B1FFF708
:10587000D7FFBFF34F8F20BFFDE7FFF7C8FF08B189
:10588000FFF73CFFFFF7BDFF0028F9D0012000F033
:1058900083FC00BF9C0600202DE9FF41474C0E46CB
:1058A000216801F0C043B3F1C04F0CBF4D428DB22F
:1058B000C1F307438046174641482A46FFF794FF45
:1058C0006FF498731D44132D0FD8DFE805F00A51CB
:1058D00054575A605D630E0E0E0E0E0E0E0E0E0E17
:1058E0000E66A1683748FFF77FFF4046FFF738FF95
:1058F00061683548FFF778FF4EB13448FFF730FF55
:105900003046FFF72DFF32483946FFF76DFFA1689B
:105910003048FFF769FF23682F4A1A44012A02D949
:105920002E4A93423DD1A06800283FD1E368002B66
:1059300042D059682A4A002908BF1146E2690392F9
:10594000A26902926269019222690092254D264A5B
:10595000002808BF2A462548FFF746FF216824484B
:10596000FFF742FF234804B0BDE8F041FFF73CBF1A
:10597000A1682148B7E7A1682048B4E7A16820489A
:10598000B1E7A1681F48AEE7A1681F48ABE7A1686F
:105990001E48A8E7A1681E48A5E71E48FFF724FF98
:1059A000A3E71D4A9342BED00020BFE7C06C80F041
:1059B0000800C0F3C000B9E70949BFE7300600207E
:1059C0002AA100087BA1000823A2000834A2000835
:1059D0003CA2000840A20008C2FE007F4001FF80F8
:1059E00015A1000800A000081FA1000854A200088B
:1059F000ADA20008FCA2000891A10008A1A1000826
:105A0000B0A10008C3A10008D7A10008EBA10008BD
:105A1000FAA1000810A200083D01FF8070470000B5
:105A200070B5294B8EB010EA200538BF1D460C46D4
:105A300016460021302202A802F0E8FE234B019511
:105A40002B44012B039402D9214B9D4233D1E36BAC
:105A50000293636B08931F4B5B690493DA6B0592A7
:105A60005A6B1B6B06920793FFF7DAFE1A4A13680C
:105A70000133012B136009D101AD0FCD174C0FC4B9
:105A80000FCD0FC40FCD0FC42B68236001AC0FCC1A
:105A9000134D0FC50FCC0FC50FCC0FC523682B605E
:105AA000104B1B68A5F130005BB19847FFF7CEFEA5
:105AB00000200EB070BD0C4B9D42C8D0029601ABC9
:105AC000C8E7FFF7ABFFF1E70101FF80C2FE007FEF
:105AD0004001FF8018010020980600206406002085
